:020000040800F2
:1000000018070020510300084D0300084D030008A5
:100010004D0300084D0300084D03000800000000D8
:100020000000000000000000000000004D03000878
:100030004D030008000000004D0300084D030008B8
:100040004D0300084D0300084D0300084D03000850
:100050004D0300084D0300084D0300084D03000840
:100060004D0300084D0300084D0300084D03000830
:100070004D0300084D0300084D0300084D03000820
:100080004D0300084D0300084D0300080000000068
:100090000000000000000000000000004D03000808
:1000A0004D0300084D0300084D0300084D030008F0
:1000B000A5070008290200084D0300084D030008A9
:1000C0004D0300084D0300084D0300084D030008D0
:1000D0004D0300086D0700084D0300084D0300089C
:1000E0004D0300084D0300084D0300080000000008
:1000F0000000000000000000000000000000000000
:1001000000000000000000000000000000000000EF
:1001100000000000000000004D0300084D0300082F
:100120005FF808F130B5012185B01A4D022001F0C9
:1001300083FC0021022001F09BFC002405232846BB
:1001400001A9ADF80430ADF80640ADF80840ADF8AF
:100150000A408DF80C4000F079F82846012100F0A3
:10016000F1F801221146284600F0D2F801231D22A1
:1001700068468DF800208DF802308DF803308DF838
:10018000014002F037F82146284600F0B3F805B0E8
:1001900030BD00BF0004004010B5044600210D48EA
:1001A00000F0A8F821460B4800F0BEF800210948ED
:1001B00000F0B8F80121074800F09CF8064A002337
:1001C00013701378002BFCD000210248BDE81040CA
:1001D00000F090B8000400408C020020F8B170B527
:1001E00005460F4C002600210E4800F083F84FF41E
:1001F0007A710C4800F098F800210A4800F092F853
:100200000121084800F076F826702378002BFCD0F6
:100210000021044800F06EF8013DE4D170BD704744
:100220008C0200200004004008B50121054800F0C0
:100230007DF830B10121034800F084F8024B01221F
:100240001A7008BD000400408C020020264A038872
:1002500090429BB212D002F5006290420ED0B0F1F3
:10026000804F0BD0A2F59832904207D002F5806201
:10027000904203D002F58062904203D14A8823F075
:1002800070031343194A904226D002F580629042CF
:1002900022D0CA8870B423F44073134C8E880D8822
:1002A0009BB21343A0420380868505850ED0104B78
:1002B00098420BD003F54063984207D003F5806362
:1002C000984203D003F58063984201D10B7A0386EC
:1002D0000123838270BC704703808B8883850B88E1
:1002E0000385012383827047002C014000100040E9
:1002F00000340140038829B923F001031B041B0CBF
:10030000038070479BB243F001030380704700BF36
:1003100083899BB21AB923EA01018181704719438D
:10032000818170478184704781857047038A828903
:1003300011EA030092B203D0114214BF0120002041
:10034000704700BFC94389B201827047FEE700BF12
:1003500008B50C480C4B984207D2C2431A4422F00D
:1003600003020432094903F091FC094809494FF09E
:1003700000028842B8BF40F8042BFADBBDE8084011
:1003800000F026BA0000002078000020FC4600089B
:10039000780000201803002030B4CD78EB0648BF69
:1003A0008B7805F00F0448BF1C430B8813F0FF0F38
:1003B00033D0482D026800F09980282D00F0FB8092
:1003C000D90744BF22F00F022243990744BF22F00D
:1003D000F00242EA0412590744BF22F4706242EA72
:1003E0000422190744BF22F4704242EA0432D906BB
:1003F00044BF22F4702242EA0442990644BF22F428
:10040000700242EA0452590644BF22F0706242EA86
:100410000462190600F19F800260FF2B31D9282D5C
:10042000426830D0482D00F09980D90544BF22F0B1
:100430000F0222439D0544BF22F0F00242EA04125B
:10044000590544BF22F4706242EA04221D0544BFEC
:1004500022F4704242EA0432D90444BF22F47022EA
:1004600042EA04429D0444BF22F4700242EA04526C
:10047000590444BF22F0706242EA04621B0467D44C
:10048000426030BC704703F4807189B2002940F0AB
:10049000118103F4007189B2002940F0058103F451
:1004A000806189B2002940F0F98003F4006189B2CB
:1004B000002940F0ED8003F4805189B2002940F01A
:1004C000E18003F4005189B2002940F0D58003F4A3
:1004D000804189B2002940F0C98003F400439BB2F7
:1004E000002BCDD064F31F724361C9E713F0010103
:1004F00040F0038103F0020189B2002940F0F78047
:1005000003F0040189B2002940F0EB8003F00801F8
:1005100089B2002940F0DF8003F0100189B2002980
:1005200040F0D38003F0200189B2002940F0C78059
:1005300003F0400189B2002940F0E48003F080011B
:1005400089B200293FF468AF64F31F72016163E769
:1005500064F31F7294E764F31F725DE703F4807124
:1005600089B200296BD103F4007189B2002960D1EE
:1005700003F4806189B2002955D103F4006189B286
:1005800000294AD103F4805189B2002962D103F4D1
:10059000005189B2002957D103F4804189B2002962
:1005A0005ED103F400439BB2002B3FF469AF64F3C8
:1005B0001F72036164E713F0010140F0CD8003F086
:1005C000020189B2002940F0C18003F0040189B220
:1005D000002940F0B58003F0080189B2002940F0FD
:1005E000A98003F0100189B2002940F09D8003F03A
:1005F000200189B2002940F0918003F0400189B2C6
:10060000002940F0858003F0800189B200293FF481
:1006100003AF64F31F724161FEE622F4704242EAC6
:1006200004320161AEE722F4706242EA0422016101
:10063000A3E722F0F00242EA0412016198E722F0F7
:100640000F02224301618EE722F4700242EA045253
:100650000161A1E722F4702242EA0442016196E7B7
:1006600022F0706242EA046201619AE722F070624D
:1006700042EA0462416130E722F4700242EA045225
:10068000416124E722F4702242EA0442416118E702
:1006900022F4704242EA043241610CE722F47062B3
:1006A00042EA0422416100E722F0F00242EA041229
:1006B0004161F4E622F00F0222434161E9E622F4AF
:1006C000700242EA0452016132E722F4702242EAE7
:1006D0000442016126E722F4704242EA04320161D9
:1006E0001AE722F4706242EA042201610EE722F066
:1006F000F00242EA0412016102E722F00F022243F3
:100700000161F7E622F0706242EA0462016115E7D6
:1007100022F0706242EA0462416174E722F47002DE
:1007200042EA0452416168E722F4702242EA04423C
:1007300041615CE722F4704242EA0432416150E7D1
:1007400022F4706242EA0422416144E722F0F0029E
:1007500042EA0412416138E722F00F02224341616C
:100760002DE700BF016170474161704708B540F255
:1007700025510B4801F02CFC48B94FF4587108483A
:1007800001F026FCBDE80840054801F017BC04480C
:1007900001F014FCBDE80840C0B200F025BC00BF69
:1007A0000038014008B501214FF08040FFF7BEFD41
:1007B00000B908BD01214FF08040FFF7C3FD00F0F4
:1007C0002DFF0028F5D0BDE8084000F021BF00BF94
:1007D0002DE9F0418CB000F095FC00F08DFC00F0AC
:1007E000B7FCFFF79FFC00F047F94FF480713648E3
:1007F000FFF7B8FF0C21354801F0DCFB01F066FA89
:10080000334801F073F9012200216D2001F03EF917
:1008100001220021712001F039F90122202112204A
:1008200001F034F901220021132001F02FF90122F7
:100830000021122001F02AF9264D012280210F20EB
:1008400001F024F9002201232A702E466B7000F07B
:10085000C5FE05AF0DF124082B780021102003F010
:10086000FF040BB973781BB901F004FD30BFF3E747
:1008700042F22830FFF7B2FC01F04EFA384600F0A1
:10088000E9F82146144801F06BFB9DF82430032B56
:1008900011D97368012B13D098E807008DE8070081
:1008A00097E80F0000F0E4FE01210B4801F058FB2F
:1008B00001F0E6F9D0E700F0C9FE01237360F3E729
:1008C00000F0B2FE7460E7E7000C01400048004011
:1008D0000040D84378000020003801402DE9F0475F
:1008E0001F464318DBB2DC19E4B24FEA172904EBC8
:1008F000090603441C44F6B2344480468A46154631
:10090000E4B24FB10023EA5C01331644F6B2DBB225
:1009100034449F42E4B2F6D840214D4801F052FBE6
:100920000028F9D0B5214A4801F044FB402148484D
:1009300001F048FB0028F9D04021454801F042FB76
:100940000028F9D06221424801F034FB40214048A0
:1009500001F038FB0028F9D040213D4801F032FB7E
:100960000028F9D041463A4801F024FB402138489C
:1009700001F028FB0028F9D04021354801F022FB86
:100980000028F9D05146324801F014FB402130488C
:1009900001F018FB0028F9D040212D4801F012FB8E
:1009A0000028F9D039462A4801F004FB40212848A4
:1009B00001F008FB0028F9D04021254801F002FB96
:1009C0000028F9D04946224801F0F4FA4021204895
:1009D00001F0F8FA0028F9D0BFB1013FBFB22F44AF
:1009E000013D15F8018F4021194801F0EBFA00286C
:1009F000F9D04146164801F0DDFA4021144801F0D3
:100A0000E1FA0028F9D0AF42EBD14021104801F0C3
:100A1000D9FA0028F9D031460D4801F0CBFA40212F
:100A20000B4801F0CFFA0028F9D04021084801F026
:100A3000C9FA0028F9D02146054801F0BBFA402147
:100A4000034801F0BFFA0028F9D0BDE8F08700BFE5
:100A50000038014030B4054672B6064C0FCC286011
:100A60006960AA60EB6007CC28616961AA6162B61F
:100A700030BC7047900200202DE9F0416225FEB0A5
:100A80002A46002101A803F00CF94FF6FF72012459
:100A90000423214606274FF0B5084FF41640ADF861
:100AA0000A208DF80730ADF808308DF805508DF824
:100AB00006708DF80C408DF8048000F0C9FA0A2009
:100AC000FFF78CFBBDF808300DF10A029DF8071006
:100AD0009DF80600FFF702FF4FF44870FFF77EFB1A
:100AE00021464FF4165000F0B3FA0A20FFF776FBC8
:100AF000BDF808300DF10A029DF807109DF80600B8
:100B0000FFF7ECFE4FF44870FFF768FB0DF16D0640
:100B10002A4600211AA803F0C4F8334600224FF0F9
:100B2000140E4FF40C604FF416418DF869508DF897
:100B30006A708DF86E40ADF87A40ADF87C408DF863
:100B40006880ADF86CE0ADF87200ADF87610ADF8E5
:100B50007420ADF878200DF1810740251A2413F890
:100B6000012F1444E4B22544BB42EDB2F7D1402139
:100B7000A54801F027FA0028F9D0B521A24801F0D4
:100B800019FA4021A04801F01DFA0028F9D04021AF
:100B90009D4801F017FA0028F9D062219A4801F027
:100BA00009FA4021984801F00DFA0028F9D04021B7
:100BB000954801F007FA0028F9D00621924801F083
:100BC000F9F94021904801F0FDF90028F9D04021C1
:100BD0008D4801F0F7F90028F9D000218A4801F08A
:100BE000E9F94021884801F0EDF90028F9D04021C9
:100BF000854801F0E7F90028F9D01421824801F076
:100C0000D9F94021804801F0DDF90028F9D04021D0
:100C10007D4801F0D7F90028F9D000217A4801F089
:100C2000C9F94021784801F0CDF90028F9D016F82B
:100C3000018F4021744801F0C5F90028F9D04146E0
:100C4000714801F0B7F940216F4801F0BBF9002865
:100C5000F9D0BE42EBD140216B4801F0B3F9002836
:100C6000F9D02146684801F0A5F94021664801F015
:100C7000A9F90028F9D04021634801F0A3F9002820
:100C8000F9D02946604801F095F940215E4801F00D
:100C900099F90028F9D001214FF4164000F0D8F955
:100CA00062270A20FFF79AFA584C3A46002133A8E7
:100CB00002F0F7FF11254FF0060E0222704629467A
:100CC000134626468DF8CD70B5278DF8CC700827D1
:100CD0008DF8D27004278DF8D3708DF8CEE08DF8A2
:100CE000CF50ADF8D02000270DF1D202FFF7F6FD6E
:100CF000C9252770677007E073784BB9FFF76EFA64
:100D00006B1E13F0FF0503D023780120002BF3D0D6
:100D1000237833B99DF8CE009DF8CF10BDF8D030C0
:100D2000E2E762273A4600214CA802F0BAFF032509
:100D3000012211462B46062630468DF831714FF0C0
:100D4000B50E02278DF83261304E8DF837718DF86F
:100D500033218DF836218DF83821ADF834518DF8D6
:100D600030E100270DF59B72FFF7B8FDC92527700C
:100D7000677007E073784BB9FFF730FA6B1E13F01A
:100D8000FF0503D023780120002BF3D0237833B95B
:100D90009DF832019DF83311BDF83431E2E70623A6
:100DA0001A4E8DF837310027BDF834310DF59B729E
:100DB0009DF833119DF83201FFF790FDC92527708A
:100DC000677007E073784BB9FFF708FA6B1E13F0F2
:100DD000FF0503D023780120002BF3D02378002BCC
:100DE000E2D02123094E8DF837310027BDF8343188
:100DF0000DF59B729DF833119DF83201FFF76EFDE2
:100E0000C925277067700BE0003801408C00002076
:100E100073784BB9FFF7E2F96B1E13F0FF0503D0AF
:100E200023780120002BF3D02378002BDED04FF065
:100E300062084246002165A802F033FF42F2107EAC
:100E400040F2FF3C06262422002530468DF89661AC
:100E5000B526134611462F468DF89721ADF89821F7
:100E6000ADF8A451072202258DF894610526ADF84E
:100E7000A2E18DF89C218DF89D5119228DF8B15178
:100E80004FF0640E8DF8A6614FF49675164E8DF8EE
:100E90009581ADF89AC1ADF8A821ADF8AA21ADF8B9
:100EA000ACE1ADF8AE510DF5CD72FFF717FDC925D8
:100EB0002770677007E073784BB9FFF78FF96B1EE7
:100EC00013F0FF0503D023780120002BF3D0237803
:100ED00033B99DF896019DF89711BDF89831E2E776
:100EE0007EB0BDE8F08100BF8C000020F0B58578B1
:100EF000C6788488AB19DBB21A19D2B202EB14217E
:100F00002B441A44C9B20A44D2B200F1060E54B1BD
:100F100000231EF8037001333944C9B2DBB20A441E
:100F20009C42D2B2F5D81EF8043074448B4204D0EF
:100F30002B4A138B01331383F0BD63789342F7D1AF
:100F4000012D02D0052D10D0F0BD072E23D0022E8A
:100F500013D0062E3AD0212EF6D1214B847DC17DAF
:100F6000027EDC7499745A74F0BD012E35D0002EC7
:100F7000EAD11C4B01225A70E6E7194BDA8A01329A
:100F8000DA82D0F80E201A60D0F80A205A60D0F821
:100F900016209A60F0BD124B817EDA8A19750132F3
:100FA000DA82D0F82210827B1960D0F81E40417F8F
:100FB0005C60D0F82A40DA74C27B9C609A74027C30
:100FC00019745A74D0F84220DA60F0BD044B017CE9
:100FD00090F8352019751A74F0BD024B1E70F0BDE3
:100FE000900200208C00002010B5184CA37833B973
:100FF000E378BBB9B52825D00023E37010BDE378B2
:10100000E218042B107104D92289591E083291422A
:1010100011D00133DBB2632B89BF0023E370E3708F
:10102000A37010BD012BE7D16228E5D10222A37085
:101030006071E27010BD201DFFF758FF0023E370C0
:10104000A37010BD01232071E37010BD8C0000203F
:101050002DE9F04180460F46244D202682B0002223
:1010600040F225512248C5F8846000F087FF40F225
:1010700025511F4800F0D0FF4FF458711C4800F074
:10108000CBFF00211A4800F06BFF01214FF4804094
:1010900000F0C4FC174B002219460C2414485C8154
:1010A0009A80DA801A819A81C3F80080012400F0C6
:1010B000F9FE25210F22022301A88DF804108DF8D6
:1010C00005208DF806308DF8074001F093F8214691
:1010D000074800F045FF37B1224640F22551044849
:1010E00000F04CFF6E6002B0BDE8F08100E100E06E
:1010F00000380140D802002000214FF0006001F0CC
:10110000AFB800BF10B500F093FB4FF4803000F093
:10111000B3FB00F0CDFB012800D010BD0446102029
:1011200000F09CFF022000F08FFF902000F0ECFB0D
:101130004FF4A06000F0FCFB4FF4806000F0EEFB89
:10114000204600F0CFFB00F0D7FB0428FBD110BDF8
:101150002DE9F04FC34C85B001210420012500F09A
:101160005DFC10264FF480532146BF482380E67073
:10117000A570FFF711F92946082000F04FFC4FF445
:10118000C0732146B9481827E6702380A570FFF781
:1011900003F94FF420432146B44823804FF480489C
:1011A0004FF0040BE770A570FFF7F6F82146AF4843
:1011B000A4F8008084F803B0FFF7EEF83046294623
:1011C00000F02CFC4FF400532146A948E670238020
:1011D000A570FFF7E1F84FF400432146A348DFF87C
:1011E000B8922380E770A570FFF7D6F840462946ED
:1011F00000F022FC0723A9F810304FF4006300260A
:1012000049464FF4827A9B48A9F80430A9F80C703B
:10121000A9F802A0A9F80060A9F80660A9F808607A
:10122000A9F80E6001F068F82946924801F098F894
:101230002946904801F080F849468E48A9F802A056
:1012400001F05AF84FF400732146874823804FF489
:10125000806AE770A570FFF79FF82146824884F8FE
:1012600003B0A4F800A0FFF797F8834B2021C3F840
:101270008410324640F22551804800F07FFE40F253
:1012800025517E4800F0C8FE4FF458717B48DFF8C6
:101290000C9200F0C1FE3146784800F061FE4046F5
:1012A000294600F0BBFB0C224FF416534946734805
:1012B000A9F80A200192C9F800304FF00208A9F8F5
:1012C0000460A9F80660A9F80860A9F80C6000F0AD
:1012D000E9FD4FF0250E0F2103A88DF80CE08DF8E5
:1012E0000D108DF80F508DF80E8000F083FF294609
:1012F000624800F035FE21465C48E770A4F800A083
:10130000A570FFF749F84FF4006321465748238042
:1013100084F803B0FFF740F8574B8027C3F8847078
:101320003146574800F01CFE29464FF4802000F05B
:1013300083FB019A4FF4964349465148A9F80A2085
:10134000C9F80030A9F80460A9F80660A9F8086097
:10135000A9F80C6000F0A6FD2946494800F000FEFF
:101360002946284600F04CFB4648DFF834B100F02F
:1013700081FE454B29464548CBF80430CBF80C801C
:10138000CBF80860CBF8286000F01AFD404ACBF893
:10139000147020274FF4807359463A48CBF82070D8
:1013A0004FF40057CBF80020CBF81830CBF81CA036
:1013B000CBF81060CBF8247000F0F0FE29463148DD
:1013C00000F00CFF4023214627482380E670FEF7FB
:1013D000E3FF4FF02003214623482380E670FEF709
:1013E000DBFF304600F0AEFA29464FF4007000F003
:1013F00015FB284B4FF46022194624489A601E6062
:101400001D715D71DE6083F8108000F0ABFC2A4630
:10141000032305211D4800F0FBFC4246032306215F
:101420001A4800F0F5FC2946184800F0C9FC174896
:10143000294600F0BBFC154800F0CCFC134800F036
:10144000CFFC0028FAD1114800F0CEFC0F4800F084
:10145000D1FC0028FAD101210C4800F0CFFC05B0E6
:10146000BDE8F08FC002002000080140000C0140E0
:10147000001001400038004000E100E00038014069
:101480000048004008000240800200200024014083
:101490004C240140AC020020C4020020D8020020ED
:1014A000E80200201C4B2DE9F0414FF400420126D8
:1014B00019464FF018081948194C1A4D1A8083F82C
:1014C00003809E70FEF768FF31464FF4804000F0C5
:1014D000B3FA4FF40060002307224FF482772146CD
:1014E000A080284622822380E3802381E381A4F820
:1014F0000C80678000F000FF3146284600F030FF86
:101500003146284600F018FF284621466780BDE88E
:10151000F04100F0F1BE00BFC0020020000C01400D
:10152000C40200200038004038B5084800F0AEFE84
:10153000074B4FF400451024012219461D80DC7032
:101540009A700448BDE83840FEF726BF00380040D6
:10155000C0020020000C014030B50446012185B0D6
:10156000084600F069FA0021012000F081FA1A4BC8
:10157000052293FBF4F301A90024013B4FF08040C6
:10158000ADF80830ADF80420ADF80640ADF80A40DB
:101590008DF80C40FEF75AFE01214FF08040FEF717
:1015A000D1FE012211464FF08040FEF7B1FE012529
:1015B0001C2368468DF800308DF801408DF80250EC
:1015C0008DF8035000F016FE29464FF08040FEF7DC
:1015D00091FE05B030BD00BF40420F0010B5084875
:1015E000084C84B0002230213723019002910093EF
:1015F00003941146044B054801F068F804B010BD8F
:101600004C4500084845000840450008F800002007
:10161000014801F0A9B800BFF8000020014B93F881
:1016200070017047F800002000B5064A89B092E8C2
:1016300003008DE803006946034800F093FF09B0FA
:101640005DF804FB54450008F800002000B5064A88
:1016500089B092E803008DE803006946034800F072
:1016600081FF09B05DF804FB5C450008F80000202C
:1016700084B0F0B5644CC61784FB0074B3B0C6EBFD
:10168000A40438AF002C87E80F0076DD5F4A604B7A
:1016900082FB0025C6EBA5556AB203FB02445D4BF5
:1016A000C4EB0414A40083FB04135B4EE11786FB18
:1016B0000404C1EBA34303EB8306C1EB2434C3EB67
:1016C000C60604EB8606F6B239984F4CC71784FB62
:1016D0000014C7EBA404002C72DD4C494C4D81FB77
:1016E0000010C7EBA05041B205FB01444948C4EBD0
:1016F0000414A40080FB0450474FE51787FB0474D3
:10170000C5EBA04000EB8007C5EB2435C0EBC70458
:1017100005EB8404E4B2002AD4BF4FF0530C4FF021
:101720004E0C81EAE17E0029C0B2AEEBE17E04906E
:10173000D4BF57214521394F394D3A48002A0594E5
:1017400006910DAC0FA9DBB2CDF804C0CDF80CE0CA
:10175000B8BF52420290089100960997079512A8C7
:101760000A94314902F0A6FA12A9304800F0FAFEB4
:1017700033B0BDE8F04004B07047264B614283FBB4
:101780000102C917C1EBA242214950B201FB00F18D
:101790000C1BC4EB0414A40083FB04131E4EE117BE
:1017A00086FB0404C1EBA34303EB8306C1EB2434A3
:1017B000C3EBC606524204EB860652B2F6B283E78A
:1017C0001448654280FB0571ED17C5EBA141104D32
:1017D0004FB205FB07F52C1BC4EB0414A40080FBDF
:1017E00004500D4FE51787FB0474C5EBA04000EBD8
:1017F0008007C5EB2435C0EBC704494205EB8404E0
:1018000049B2E4B287E700BF676666666BCA5F6B82
:10181000C0BDF0FF83DE1B43AD8BDB689045000845
:10182000A0450008A445000864450008F800002011
:101830000F4B10B419680F4A41F0010119605C6840
:101840004FF41F0022405A601A68002122F084726F
:1018500022F480321A601A6810BC22F480221A60C6
:101860005A6822F4FE025A609860D962704700BF3D
:10187000001002400000FFF80C4BB0F5803F1A68E2
:1018800022F480321A601A6822F480221A6008D08A
:10189000B0F5802F04D11A6842F4A0221A60704774
:1018A00070471A6842F480321A6070470010024094
:1018B00082B000230A4A019302E0B3F5A06F08D07A
:1018C000136813F4003F019B03F101030193019B93
:1018D000F3D0034B1868C0F3404002B0704700BF1C
:1018E00000100240034A536823F00303184350607A
:1018F000704700BF00100240024B586800F00C0017
:10190000704700BF00100240034A536823F0F00301
:1019100018435060704700BF00100240034A5368EC
:1019200023F4E06318435060704700BF001002408A
:10193000034A536823F4605343EAC0005060704781
:1019400000100240034A536823F440431843506098
:10195000704700BF00100240244910B44B6803F0E8
:101960000C03042B33D0082B25D00BB3204A13468D
:1019700002601E4A1F495468C4F303140C5DE3401F
:1019800043605468C4F302240C5D23FA04F48460B9
:101990005468C4F3C2240C5DE340C360526810BCB9
:1019A000C2F381320A44127CB3FBF2F30361704745
:1019B0000F4B0360DDE74B684C68C3F383439A1C0D
:1019C000E30307D40C4B03FB02F30360D1E70B4B9B
:1019D0000360CEE7CB6A094903F00F030133B1FB83
:1019E000F3F302FB03F30360C3E700BF0010024000
:1019F00000127A000000002000093D0000366E0150
:101A000029B9054A536923EA000050617047024B27
:101A10005A691043586170470010024029B9054ABD
:101A2000936923EA000090617047024B9A69104362
:101A3000986170470010024029B9054AD36923EA2A
:101A40000000D0617047024BDA691043D8617047DB
:101A50000010024029B9054AD36823EA0000D0608B
:101A60007047024BDA681043D8607047001002409C
:101A700029B9054A136923EA000010617047024B37
:101A80001A691043186170470010024010B51ABB64
:101A9000000200B240EA01044FF400511148A4B220
:101AA000FEF762FE0221104800F068FC0028F9D021
:101AB00021460D4800F04EFC01210B4800F05EFC71
:101AC0000028F9D04FF400510648FEF74BFE0648B7
:101AD00000F042FCC0B210BD40F08000000200B235
:101AE000D8E700BF001001400038004070B55C49E5
:101AF000064600F073FF5B49054601F021F95A499B
:101B0000041C284618BF012401F01CF801F02CF930
:101B1000A500C0B21838651B00EBC505601C95FB1D
:101B2000F0F500F007FF514900F058FF014630463C
:101B300001F008F80646E8B200F0FCFE0146304627
:101B400000F042FE4A4900F03FFE4A4900F046FFDD
:101B500001F00AF94FF4005186B24748FEF704FE3F
:101B60000221464800F00AFC0028F9D04FF20A2171
:101B7000424800F0EFFB0121404800F0FFFB002845
:101B8000F9D04FF400513C4805F01F05FEF7EAFD7F
:101B900045EA4414394800F0DFFB44F475444FF43F
:101BA0000051354844F04004FEF7DEFD0221334881
:101BB00000F0E4FB0028F9D02146304800F0CAFBD1
:101BC00001212E4800F0DAFB0028F9D04FF4005133
:101BD0002948FEF7C7FD294800F0BEFB340A4FF440
:101BE0000051254844F47644FEF7BEFD0221234807
:101BF00000F0C4FB0028F9D02146204800F0AAFBE1
:101C000001211E4800F0BAFB0028F9D04FF4005122
:101C10001948FEF7A7FD194800F09EFBF6B24FF4F5
:101C20000051154846F47746FEF79EFD0221134801
:101C300000F0A4FB0028F9D03146104800F08AFBE0
:101C400001210E4800F09AFB0028F9D00A484FF411
:101C50000051FEF787FDBDE87040084800F07CBBEE
:101C60003BB1933F0000F04300002041ABAA0A4182
:101C70000000C04100007A470010014000380040D9
:101C800008B54FF400510F48FEF76EFD02210E48D3
:101C900000F074FB0028F9D048F240710A4800F0C7
:101CA00059FB0121084800F069FB0028F9D00548DC
:101CB0004FF40051FEF756FDBDE80840024800F021
:101CC0004BBB00BF001001400038004008B54FF486
:101CD00000510F48FEF748FD02210E4800F04EFB70
:101CE0000028F9D048F280710A4800F033FB012146
:101CF000084800F043FB0028F9D005484FF4005194
:101D0000FEF730FDBDE80840024800F025BB00BFEB
:101D1000001001400038004008B54FF400510F4852
:101D2000FEF722FD02210E4800F028FB0028F9D022
:101D300048F248710A4800F00DFB0121084800F004
:101D40001DFB0028F9D005484FF40051FEF70AFDAD
:101D5000BDE80840024800F0FFBA00BF0010014093
:101D60000038004042680B6822F4702230B422F43C
:101D700080720C79134343EA042343608568CC687E
:101D80008A68094B22432B404C79134343EA4403AE
:101D900083600A7CC36A013AD2B223F4700343EA37
:101DA0000253C36230BC7047FDF7F1FF836819B975
:101DB00023F001038360704743F0010383607047A1
:101DC000836819B923F480738360704743F4807388
:101DD00083607047836843F008038360704700BFE7
:101DE0008068C0F3C0007047836843F004038360D9
:101DF000704700BF8068C0F380007047836819B9DE
:101E000023F4A0038360704743F4A003836070470A
:101E1000092970B41DD9A1F10A0606EB4606C5686A
:101E20000724B440B34025EA04042343062AC360D0
:101E30001BD90C2A27D90D3A02EB8202C36A1F2450
:101E4000944001FA02F223EA04010A43C26270BC20
:101E5000704701EB410605690724B440B34025EA09
:101E600004042343062A0361E3D8013A02EB820209
:101E7000436B1F24944001FA02F223EA04010A434F
:101E8000426370BC7047073A02EB8202036B1F2467
:101E9000944001FA02F223EA04010A43026370BC8F
:101EA000704700BF30B504460D46038ACA889BB20E
:101EB00023F440531343038282890B89888892B2AA
:101EC0004989034322F4B0520B4322F00C0213431E
:101ED0009BB2A381A38AAA899BB223F4407387B0E3
:101EE0001343A38201A8FFF737FD04991A48039B07
:101EF000A289844208BF0B4612F4004F2A6803EB04
:101F0000830314BF5200920003EB8303B3FBF2F38D
:101F1000124DA189A5FB03206422400900FB123366
:101F20000A044FEA00100AD41A013232A5FB022338
:101F3000C3F3431303439BB2238107B030BDD900E1
:101F40003231A5FB0131C1F3421242EA00039BB2D8
:101F5000238107B030BD00BF003801401F85EB5121
:101F6000838929B923F400531B041B0C8381704718
:101F70009BB243F400538381704700BF10B401F05B
:101F80001F04C1F342110123012903FA04F30FD006
:101F900002290CBF103014302AB9026810BC22EAA2
:101FA000030303607047026810BC1343036070476B
:101FB0000C30F1E7C1F30801818070478088C0F3DD
:101FC000080070470388194214BF012000207047A1
:101FD000C1F3421210B4012301F01F04012A03FAD5
:101FE00004F315D0022A0CBF028A828A92B21340EF
:101FF000028892B24BB10123090A03FA01F10A42A5
:1020000014BF1846002010BC7047184610BC70471B
:10201000828992B21340EBE7090A012303FA01F126
:10202000C94389B201807047044A05491368002BEF
:1020300008BF0B4618441060184670477002002015
:1020400018030020FEE700BF034A136803F03803BB
:1020500018431060704700BF00200240044B1A680C
:1020600022F010021A601A6810431860704700BF0F
:10207000002002404FF6FE7203683A491A40884237
:102080004FF000030260036043608360C36027D0A9
:10209000354B98422AD0354B98422DD0344B98423C
:1020A00030D0344B984239D0334B98423CD0334BEC
:1020B00098420FD0324B98423CD0324B98423FD09E
:1020C000314B984242D0314B984245D0304B9842E8
:1020D0001ED070472F4A536843F0706353607047B7
:1020E0002C4A536843F00F0353607047294A5368E2
:1020F00043F0F00353607047264A536843F470631B
:1021000053607047234A536843F4704353607047E9
:10211000214A536843F470235360DAE71D4A536839
:1021200043F47023536070471A4A536843F47003B2
:1021300053607047184A536843F00F035360704769
:10214000154A536843F0F00353607047124A5368CE
:1021500043F47063536070470F4A536843F470430D
:1021600053607047080002401C00024030000240EB
:1021700044000240580002406C00024080000240CF
:10218000080402401C04024030040240440402409F
:102190005804024000000240000402400A6A70B481
:1021A0008D680B692A434D6913438A691D43CB69C6
:1021B00045EA020402684D6A23438C6A1D4322F4F7
:1021C000FF43CE684A682C4323F070030D68234315
:1021D000036046608560C26070BC704729B94FF6E5
:1021E000FE730268134003607047036843F0010305
:1021F00003607047C3785BB9037801215A09164818
:1022000003F01F03203201FA03F340F82230704735
:10221000124B30B4D9688278C9434478C1F30221A3
:102220000F23C1F10405CB40AC4013400278234397
:102230001B0102F16042DBB202F5614282F8003319
:102240000378012203F01F0003495B09824041F833
:10225000232030BC704700BF00E100E000ED00E04B
:1022600021F0604121F07F01014B084398607047E5
:1022700000ED00E0044A136919B923EA0000106177
:10228000704718431061704700ED00E008B5174B28
:10229000984212D0164B98421BD0164B984200D051
:1022A00008BD01214FF40040FFF7E2FBBDE8084004
:1022B00000214FF40040FFF7DBBB01214FF48050B9
:1022C000FFF7C8FBBDE8084000214FF48050FFF73E
:1022D000C1BB01214FF48040FFF7CAFBBDE80840B5
:1022E00000214FF48040FFF7C3BB00BF0030014026
:1022F00000380040003C00404A8830B40C888B888D
:102300002243CC881A430B8922434C898D891A4376
:1023100022430388CC892A43224303F441531343C5
:102320009BB20380838B0A8A23F400631B041B0C7B
:10233000838330BC02827047038829B923F04003AD
:102340001B041B0C038070479BB243F040030380C7
:10235000704700BF81817047808980B2704700BF9D
:10236000838829B923F004031B041B0C8380704766
:102370009BB243F004038380704700BF0389194276
:1023800014BF012000207047A1F17E02B2FA82F250
:102390002DE9F8432D4C002352098946054626466F
:1023A0001F46227063704FF0010811E0002B3BD0F4
:1023B00086F803800121B5F87401FDF7EDFE63781E
:1023C0004FEA59090133DBB2072B63703BD83278EF
:1023D00009F00103A370002AE8D12A8882EA0301E8
:1023E000C9074FEA520244BF82F4044282F0080255
:1023F0002A80CBB1E3780133DBB2052BE370D9D16E
:102400000121B5F87401FDF7C7FE40F2891395F874
:102410006D21E770022A16BF02220122CA2385F825
:102420006D21A5F87231C5E740F2891395F86D2149
:10243000E770022A0EBF01220222CA2385F86D210D
:10244000A5F87231B6E7BDE8F88300BF740200203A
:10245000F8B505463F480F461646FFF747FB0122F1
:1024600005217220FFF712FB4FF400513A48FEF7A6
:1024700079F9012212217120FFF708FBFFF754F8C8
:10248000B5F80401012385F8703108B1FDF7A6FE07
:1024900095F86F31002B53D1012385F86F314FF43C
:1024A00000412E48FEF75EF94FF6FF704FF0804274
:1024B0001388002423F001031B041B0C1380B5F8C0
:1024C000723101219385948413889BB20B4313804E
:1024D000AB78288085F86D1143B17E212846FFF73F
:1024E00053FF0134AB78E4B2A342F6D8344636B198
:1024F00017F8011B2846FFF747FF013CF8D12B884E
:10250000174CD9436FEA13232846C9B22371FFF74A
:102510003BFF21792846FFF737FF002428467E211C
:10252000FFF732FFFEF7BEFF2146012285F870411A
:102530007120FFF7ABFA6420FFF70EF82046F8BDD4
:10254000002385F86F314FF400410448FEF70CF981
:10255000AAE700BF0040D84300100140000C014032
:10256000740200202DE9F047044608460F4601F0AA
:10257000CDFB4FF0203904F10B0394F80E81C4F821
:102580000B90A4F80F9004F583710622251D0646D2
:10259000184694F815A101F0C1FBC4F8049004F2A8
:1025A0000F110622A5F80490284601F0B7FBB8F1F8
:1025B000400F84BFA8F106085FFA88F804F58C790B
:1025C00084F8118084F80AA0484601F09FFB8046F9
:1025D000421C494604F1120001F058FB5FFA88F0F2
:1025E00000F10E080023E1180A790133DBB2520032
:1025F00043450A71F7D300F10D0323441A7904EB24
:10260000080E42F001021A71032223188EF80420EA
:102610001030F02239462844DA74324601F07EFB4D
:10262000B21C424429462046BDE8F047FFF710BFE0
:10263000F8B508460D46164601F068FBC0B2002802
:1026400042D000273C46691E202200F1FF3E0CE0EC
:102650002D2D08BF2025774504F1010335551CD0E9
:10266000DCB20137FBB2984214D911F8015F2C2D6E
:10267000EED12346062B13D8C3F10704E4B21C4461
:10268000E4B25D1CF254EBB29C42FAD10137FBB2CA
:102690009842EAD800233355F8BDDBB2062BEBD9BC
:1026A000A3F10804E4B2052C03D8C3F10E04E4B28C
:1026B000E5E7A3F10F04E4B2052C03D8C3F1150438
:1026C000E4B2DCE71C46CCE70446E3E72DE9F0473B
:1026D000044640F21B3640F289109A46214F1923D6
:1026E0000125BC6084F86C11A370A4F87461E270D9
:1026F000A4F87201A4F8045184F86E519DF820905A
:10270000DDF824809DF828700B9EFEF7CBFE00219B
:102710002A4684F870117120FFF7B8F96420FEF79B
:102720001BFF4FF0203504F5837251461046C4F864
:102730000651A4F80A5101F0E1FA04F20F1084F8EE
:102740000E91C4F80F514146858001F0D7FA84F804
:102750001571314604F58C722046BDE8F047FFF74D
:1027600067BF00BF7402002010B590F86F310446B7
:10277000D3B9012380F86F314FF400410F48FDF7C2
:10278000F1FF4FF080421388002123F001031B0466
:102790001B0C1380B4F872319385918413889BB21B
:1027A00043F00103138010BD002380F86F314FF414
:1027B00000410248FDF7D8FFE3E700BF000C0140ED
:1027C00080F0004002E000BF81F0004142001FBFE6
:1027D0005FEA410392EA030F7FEA226C7FEA236CEF
:1027E0006AD04FEA1262D2EB1363C1BFD2184140E4
:1027F00048404140B8BF5B42192B88BF704710F07A
:10280000004F40F4000020F07F4018BF404211F01C
:10281000004F41F4000121F07F4118BF494292EA84
:10282000030F3FD0A2F1010241FA03FC10EB0C00B0
:10283000C3F1200301FA03F100F0004302D549423D
:1028400060EB4000B0F5000F13D3B0F1807F06D3EA
:1028500040084FEA310102F10102FE2A51D2B1F1E2
:10286000004F40EBC25008BF20F0010040EA0300D7
:102870007047490040EB000010F4000FA2F1010284
:10288000EDD1B0FA80FCACF1080CB2EB0C0200FA0E
:102890000CF0AABF00EBC25052421843BCBFD0405C
:1028A0001843704792F0000F81F4000106BF80F4D6
:1028B00000000132013BB5E74FEA41037FEA226C99
:1028C00018BF7FEA236C21D092EA030F04D092F064
:1028D000000F08BF0846704790EA010F1CBF002098
:1028E000704712F07F4F04D1400028BF40F00040F5
:1028F000704712F100723CBF00F50000704700F015
:10290000004343F0FE4040F4000070477FEA22623B
:1029100016BF08467FEA23630146420206BF5FEA0C
:10292000412390EA010F40F4800070474FF000030C
:1029300004E000BF10F0004348BF40425FEA000CD3
:1029400008BF704743F0964301464FF000001CE07B
:1029500050EA010208BF70474FF000030AE000BFD1
:1029600050EA010208BF704711F0004302D540420F
:1029700061EB41015FEA010C02BF84460146002081
:1029800043F0B64308BFA3F18053A3F50003BCFA9C
:102990008CF2083AA3EBC25310DB01FA02FC634449
:1029A00000FA02FCC2F12002BCF1004F20FA02F250
:1029B00043EB020008BF20F00100704702F1200243
:1029C00001FA02FCC2F1200250EA4C0021FA02F2A4
:1029D00043EB020008BF20EADC7070474FF0FF0CA9
:1029E0001CEAD0521EBF1CEAD15392EA0C0F93EAA4
:1029F0000C0F6FD01A4480EA010C400218BF5FEA46
:102A000041211ED04FF0006343EA501043EA5111B8
:102A1000A0FB01310CF00040B1F5000F3EBF4900B2
:102A200041EAD3715B0040EA010062F17F02FD2AB6
:102A30001DD8B3F1004F40EBC25008BF20F0010099
:102A4000704790F0000F0CF0004C08BF49024CEAB0
:102A5000502040EA51207F3AC2BFD2F1FF0340EA42
:102A6000C250704740F400004FF00003013A5DDCB3
:102A700012F1190FDCBF00F000407047C2F10002F4
:102A8000410021FA02F1C2F1200200FA02FC5FEAE1
:102A9000310040F1000053EA4C0308BF20EADC702B
:102AA000704792F0000F00F0004C02BF400010F49D
:102AB000000F013AF9D040EA0C0093F0000F01F04A
:102AC000004C02BF490011F4000F013BF9D041EA6C
:102AD0000C018FE70CEAD15392EA0C0F18BF93EA6E
:102AE0000C0F0AD030F0004C18BF31F0004CD8D198
:102AF00080EA010000F00040704790F0000F17BF1F
:102B000090F0004F084691F0000F91F0004F14D064
:102B100092EA0C0F01D142020FD193EA0C0F03D1BC
:102B20004B0218BF084608D180EA010000F00040BF
:102B300040F0FE4040F40000704740F0FE4040F49A
:102B4000400070474FF0FF0C1CEAD0521EBF1CEA39
:102B5000D15392EA0C0F93EA0C0F69D0A2EB030257
:102B600080EA010C49024FEA402037D04FF08053F1
:102B700043EA111143EA10130CF000408B4238BFB6
:102B80005B0042F17D024FF4000C8B4224BF5B1AC4
:102B900040EA0C00B3EB510F24BFA3EB510340EA12
:102BA0005C00B3EB910F24BFA3EB910340EA9C00C0
:102BB000B3EBD10F24BFA3EBD10340EADC001B0130
:102BC00018BF5FEA1C1CE0D1FD2A3FF650AF8B42D4
:102BD00040EBC25008BF20F0010070470CF0004CE1
:102BE0004CEA50207F32C2BFD2F1FF0340EAC2500C
:102BF000704740F400004FF00003013A37E792F0CD
:102C0000000F00F0004C02BF400010F4000F013A2A
:102C1000F9D040EA0C0093F0000F01F0004C02BF25
:102C2000490011F4000F013BF9D041EA0C0195E78E
:102C30000CEAD15392EA0C0F08D142027FF47DAF27
:102C400093EA0C0F7FF470AF084676E793EA0C0F17
:102C500004D14B023FF44CAF08466EE730F0004C15
:102C600018BF31F0004CCAD130F000427FF45CAFA5
:102C700031F000437FF43CAF5FE700BF4FF0FF3C13
:102C800006E000BF4FF0010C02E000BF4FF0010C66
:102C90004DF804CD4FEA40024FEA41037FEA226C2F
:102CA00018BF7FEA236C11D001B052EA530C18BF51
:102CB00090EA010F58BFB2EB030088BFC81738BFB6
:102CC0006FEAE17018BF40F0010070477FEA226CA4
:102CD00002D15FEA402C05D17FEA236CE4D15FEAA0
:102CE000412CE1D05DF8040B704700BF84460846D4
:102CF0006146FFE70FB5FFF7C9FF002848BF10F195
:102D0000000F0FBD4DF808EDFFF7F4FF0CBF0120D9
:102D100000205DF808FB00BF4DF808EDFFF7EAFF63
:102D200034BF012000205DF808FB00BF4DF808ED1E
:102D3000FFF7E0FF94BF012000205DF808FB00BF13
:102D40004DF808EDFFF7D2FF94BF012000205DF899
:102D500008FB00BF4DF808EDFFF7C8FF34BF0120A6
:102D600000205DF808FB00BF42000ED2B2F1FE4F1A
:102D70000BD34FF09E03B3EB126209D44FEA00234A
:102D800043F0004323FA02F070474FF00000704711
:102D900012F1610F01D1420202D14FF0FF307047B2
:102DA0004FF00000704700BF03685A004CBF43F06B
:102DB000004323F000431844704700BF61B32DE97E
:102DC000F84F01F1FF3A90460646D146002707EB3F
:102DD000090404EBD4746410E50071190846FFF788
:102DE000E3FFA245834605F10800304409D0FFF710
:102DF000DBFFC34500F1FF3005D8404509D2671C11
:102E0000E5E7C34505D9A74202D004F1FF39DEE763
:102E100000210846BDE8F88F08467047012807D012
:102E2000022807D0044B00280CBF1846002070472A
:102E300002487047024870473135000835350008B0
:102E40003935000830B5254B83B004468D1E7BB361
:102E500001A92846AFF3008020B301992A46FFF765
:102E6000ADFF0146F0B1FFF79FFF4B68A064012B57
:102E700012D0002B01F1040021DBFFF795FF0023A6
:102E8000E06423650368002B1DDBFFF78DFF002343
:102E90002061184603B030BD002323610523184686
:102EA00003B030BD002323610923184603B030BDB1
:102EB0000B490C4B0846591AC9100191CEE7012362
:102EC000E0642365DEE7C3F30360FFF7A7FF002894
:102ED000206114BF00230923DBE700BF00000000CE
:102EE000F4450008FC460008036810B5DA070446FC
:102EF00006D49B0700F1480009D500F05BFC23686D
:102F0000590709D51A070ED5DB0613D510BD00F0F9
:102F100049FC23685907F5D404F1D00000F052FCB5
:102F200023681A07F0D404F5A87000F053FC236856
:102F3000DB06EBD404F5E870BDE8104000F08EBC71
:102F400003680BB118447047184670470920704752
:102F5000704700BF70B504460D4608E02A6C23692F
:102F6000626121462A4601209847082808D1296C29
:102F70002046FFF767FF06460028EFD0FFF762F80C
:102F80000728FBD13046296CFFF7E2FF281D00F02F
:102F9000FDFB00BF2DE9F0470646ADF5727D03ADA0
:102FA0000C1D17460FCC0FC50FCC0FC50FCC0FC58E
:102FB00094E80F0002ACD6F80C80D6F8189085E89B
:102FC0000F0000233046216C2360FFF73BFF0546CE
:102FD000002F14BF0A2709277DB1A36B47F010010A
:102FE0008DE810023246636401203346C04778BB47
:102FF00028460DF5727DBDE8F087236C4FF4F07222
:10300000736121467AA800F041FE33697AAA3146FD
:1030100038469847889B82468DE81002394663649B
:10302000324633460120C04790B94FF4F0727AA976
:10303000204600F02BFEBAF1080F06D1216C304675
:10304000FFF700FF09270546C6E7BAF1070F04D0CE
:1030500009200DF5727DBDE8F0872846216CFFF749
:1030600077FF03A800F092FB406C7047F0B5CB6B84
:10307000F9B00B640E1D01AD0F4604460FCE0FC50F
:103080000FCE0FC50FCE0FC596E80F004FF0FF36DD
:1030900085E80F00009606E023696A4621469847B6
:1030A0000828054608D110992046FFF7CBFE0028D6
:1030B000F2D0092079B0F0BD6846FFF715FF062D64
:1030C000F7D139462046FFF745FF00BF30B4DD6B2E
:1030D000C160826119461D64002230BC5AE700BFFE
:1030E00070B54369C6680B6426B10122FFF752FF31
:1030F000FEF7A8FF03690A4604460D460146022072
:103100009847072807D0082803D129462046FFF70B
:1031100021FFFEF797FF3046296CFFF719FF281DA6
:1031200000F034FBC2682AB110B4CC6B00220C64EE
:1031300010BC2FE79AE700BF704700BF836813B148
:10314000014601201847704700B5042907D8DFE879
:1031500001F00309060909000BB90F2A05D902205D
:103160005DF804FB01205DF804FB00EB820252686D
:103170001846019B1A605DF804FB00BF10B584B0CF
:10318000002303AC0A4600941946FFF7DDFF0398BD
:1031900004B010BD00B5042907D8DFE801F0030929
:1031A000060909000BB90F2A05D902205DF804FBB6
:1031B00001205DF804FB019900EB820209681846C2
:1031C00051605DF804FB00BF10B584B004AC44F856
:1031D000042D00230A4600941946FFF7DBFF04B0D4
:1031E00010BD00BFF0B5D36BADF50F7D1364151D99
:1031F00017AC07460E460FCD0FC40FCD0FC40FCD31
:103200000FC495E80F004FF0FF3584E80F001695C6
:1032100011E016A86A46FFF7D7FF314616A8B8474F
:1032200080B9049B16AA69460820984705280446D9
:1032300009D0092806D026996846FFF703FE0C211D
:103240000028E6D0092416A8FFF74EFE20460DF50B
:103250000F7DF0BD2DE9F04FCC6C914622688BB00C
:1032600004340D460792089400F0030B1E46002B11
:1032700064D11202032307928DF825608DF8243063
:103280002B6DBBF1020F08BFAC6B13F0010343D1F0
:1032900000F00800C2B2039201932768002F3DD0CE
:1032A000022E47D02788B4F802800434AB6C28F093
:1032B000010A0F2148469A44FFF760FF824537D83C
:1032C00027F001039A4450452CBF002001204FEA0B
:1032D000480808F0020807F0010748EA0708B8F1B3
:1032E000010F41D038D3B8F1020F1DD1236823F06C
:1032F00000420292BBF1000F79D130B1039900294D
:1033000000F08180002A00F0A880002B79DB029B6E
:10331000013304EB8304C0E700230193022E40DD58
:10332000FFF714FE002842D009200BB0BDE8F08F53
:103330000020CCE7D4F804800834B7E7022B9FDCE8
:10334000130CD9B212048DF82530022304EB81044A
:1033500007928DF8243093E7BBF1000F02D00028CC
:1033600040F0B080043498E7BBF1000F26D1B0B133
:1033700094E80C00991C4FEAD272D5D005F158019F
:103380000133069100F09480201DFFF7D9FD06ABB4
:1033900001462846AFF30080002840F0B88008348A
:1033A0007BE707A9484600F0F3FA0028BCD1019B4F
:1033B000002B5CD108200BB0BDE8F08F0D214846F2
:1033C0002F6AFFF7DBFE8742E9D1AB6A9C42E6D168
:1033D0002046FFF7E9FC0F2102464846FFF7F4FEBE
:1033E00048462A460021FFF7EFFE07209DE70D2102
:1033F00048462F6AFFF7C2FE874248D02368002B59
:1034000085DA043483E7029B3BB305F15803271D9B
:10341000CDF810B0DDF80C80A346DDF808A01C46FE
:10342000059602E0B245B04616D038460694FFF73E
:1034300087FD06AB014600222846AFF3008008F165
:10344000010604370028EDD0029B5C464345DDF8B9
:1034500010B0059ED2D100E05C4648460D21FFF732
:103460008DFE069B2862AC626B6206205DE70F2131
:103470004846FFF783FE0E2102464846FFF7A4FEAA
:1034800048462A4A0F21FFF79FFE07204DE7AB6A07
:103490009C42B3D1042202990027A318A962EF62CB
:1034A0002A636B632368BB421FDB012301932EE772
:1034B00048460D21FFF762FE2862069B6B62AC62F4
:1034C000062032E72046FFF76FFC04340646AC6363
:1034D0002846AFF3008000283FF426AF4846324626
:1034E0000F21FFF771FE07201FE70846013004EBAC
:1034F0008000FFF759FC0F2102464846FFF764FEA3
:1035000048462A463946FFF75FFE07200DE7074683
:103510000D214846FFF732FE022F2862CDD12B46FF
:10352000069A43F82C2F6B62C9E700BF0000000029
:1035300000238FE601238DE602238BE6F0B50446D7
:10354000C5B004290DD8DFE801F057030C310F0096
:10355000012B4FEA124695B266D17219102A40F239
:103560009F80022045B0F0BD002BFAD1102AF8D878
:103570002368D80600F1C98022AE3046019200F0DF
:1035800077F9A06B019A0023012505FA03F1114296
:1035900003D00168043046F823100133042BF4D122
:1035A000A063304600F05AF90020DBE7032BD8D1A6
:1035B000150C97B2EB19102BD3D823681E0700F116
:1035C000B88022AE30467F0000F026F906EBC50237
:1035D0007B1EA56B57B12946043A51F8040B013BF9
:1035E00042F8040F581CF8D105EB87053046A56357
:1035F00000F0F0F80020B5E7002BB2D1A56B97B230
:10360000201D012606FA03F1394203F1010302D01D
:10361000296804350160102B00F10400F2D112F486
:1036200000503BD1A5639DE7052B9AD17719202F38
:1036300097D80F2E65D92F46002D48D12A4600274E
:10364000002AA06B71DD00EBC202014644A800EB2A
:10365000C6008C3851F8045B914240F8045FF9D100
:10366000084697B13246102E44A938BF102201EB0C
:10367000C202A2F5C4727900043A00EB810150F84D
:10368000045B814242F8045FF9D1012B47D00F2E31
:10369000A16332D917B102A800F094F8002061E7C5
:1036A0000F2E3FF65EAF00272268D1070DD522F01E
:1036B0000101052B21600193204652D022F0030224
:1036C00040F8482B00F072F8019B002F51D022687F
:1036D000510736D4012B3ED00F2E06D822A80193D5
:1036E00000F06CF8019B002FA8D002A8019300F015
:1036F0006DF8019BC6F11002A2E722A800F05AF86B
:10370000C8E7102FCFD9103FCEE723F01003236076
:1037100004F5E870019200F0ABF8019A2CE704314F
:10372000A16322A800F03EF8B8E7002F9AD1014625
:10373000ABE723F00803236004F5A87000F06CF8F1
:103740003FE7204622F0040240F8D02B019300F01E
:103750003DF8019BBEE722A8019300F027F8019BEA
:10376000C8E741F0020140F8481B00F027F8019B30
:10377000ABE7012B03D00F2E3FF660AFAEE722A8D8
:10378000019300F013F8019B58E700BF00F13401EA
:1037900091E838009C46A6464CF8045D90E8FF0F7F
:1037A000E54600BD90EC210B704700BF80EC210B7B
:1037B000704700BF90EC200B704700BF80EC200BDF
:1037C000704700BFD0EC200B704700BFC0EC200B4F
:1037D000704700BFF0EC0201F0EC0211F0EC0221A6
:1037E000F0EC0231F0EC0241F0EC0251F0EC02613D
:1037F000F0EC0271F0EC0281F0EC0291F0EC02A12D
:10380000F0EC02B1F0EC02C1F0EC02D1F0EC02E11C
:10381000F0EC02F1704700BFE0EC0201E0EC0211B5
:10382000E0EC0221E0EC0231E0EC0241E0EC02517C
:10383000E0EC0261E0EC0271E0EC0281E0EC02916C
:10384000E0EC02A1E0EC02B1E0EC02C1E0EC02D15C
:10385000E0EC02E1E0EC02F1704700BFB0FC018156
:10386000B0FC0191B0FC01A1B0FC01B1704700BFF8
:10387000A0FC0181A0FC0191A0FC01A1A0FC01B170
:10388000704700BFEC4600B52DE900502DE9FF1F41
:103890004FF000032DE90C0001A9FFF7E7FBDDF86D
:1038A00040E012B0704700BFEC4600B52DE9005073
:1038B0002DE9FF1F4FF000032DE90C0001A9FFF7D0
:1038C0000FFCDDF840E012B0704700BFEC4600B5D9
:1038D0002DE900502DE9FF1F4FF000032DE90C00EA
:1038E00001A9FFF71FFCDDF840E012B0704700BFF0
:1038F000EC4600B52DE900502DE9FF1F4FF0000305
:103900002DE90C0001ABFFF7E1FBDDF840E012B060
:10391000704700BFEC4600B52DE900502DE9FF1FB0
:103920004FF000032DE90C0001AAFFF75BFCDDF866
:1039300040E012B0704700BF037A1BB9437A43B925
:10394000B02070475A1E036802721A020260180EF5
:1039500070474268013B10B4437213680321141D81
:1039600001721A024460026010BC180E704700BF5A
:1039700000B585B003AA0023009219460C22FFF778
:10398000E3FB039805B05DF804FB00BFF0E700BF60
:103990002DE9F04306460D4685B04FF00008284655
:1039A000FFF7CAFFB028044600F0B48020F07F0380
:1039B00013F0FF0320D000F0F003802B7AD0902B7F
:1039C00035D0A02B48D0B02B5CD0C02B00F0898024
:1039D00000F0F803D02B0BD100F00702013242F4C3
:1039E0000022052301213046FFF7A8FD0028D6D08C
:1039F000092005B0BDE8F0830DF10C0919468700D8
:103A0000CDF800900D223046FFF79EFBFFB2039BDE
:103A1000043760064CBFDF1BFF180023CDF8009071
:103A200019460D2230460397FFF7B4FBB7E700F0C5
:103A30000D030D2BDCD003AF002300F00F0219465D
:103A400000973046FFF780FB0023009719460D22B0
:103A50003046FFF79FFBA2E7C2434FF47F6302F0BB
:103A6000070243FA02F2010702EA03024FF00003E1
:103A700048BF42F4804219463046FFF75FFD0028F8
:103A8000B6D18CE7B1284AD0B22853D0B32800F081
:103A9000818000F0FC03B42BAAD000F007020132B1
:103AA000012342F4002219463046FFF747FD002863
:103AB0009ED174E72846FFF73FFF24022043B0F56C
:103AC000004F95D004010023A2B219463046FFF7FB
:103AD00035FD00288CD114F4004F18BF4FF00108B9
:103AE0005DE7C62862D0C7286CD000F0F803C02B71
:103AF0007BD0C82800F09180C9287FF479AF284690
:103B0000FFF71AFF020300F00F0002F470220130E9
:103B1000024366E7B8F1000F6ED0002069E728463F
:103B2000FFF70AFF024600283FF462AF10F0F003EF
:103B3000B9D05DE700230DF10C090D221946CDF82F
:103B400000903046FFF700FB2846FFF7F5FE02061F
:103B50004FF002040CD5039B00F07F00A04003440B
:103B600028460393FFF7E8FE030604F10704F2D4A6
:103B7000039B00F07F0000FA04F203F501740023B8
:103B80001444CDF8009019460D2230460394FFF7F7
:103B900001FB04E72846FFF7CFFE010300F00F000A
:103BA00001F47021421C01230A437CE72846FFF7F9
:103BB000C3FE010300F00F0001F47021421C032337
:103BC0000A4370E72846FFF7B7FE024600283FF495
:103BD0000FAF10F0F0037FF40BAF04213046FFF776
:103BE000ADFC00287FF404AFD9E600F00F020132EB
:103BF000032342F4202256E703AC43460E224146FB
:103C000000943046FFF7A0FA0094304643460F2256
:103C10004146FFF7BFFA4046EBE62846FFF78CFE29
:103C200000F0F00200F00F031032013343EA0232D9
:103C3000D7E600BF10B5C36C84B003205A688DF876
:103C40000C00DC7912020833084601A901928DF8B4
:103C50000D400293FFF79CFE04B010BD08B5FFF7BE
:103C600095FE806C08BD00BF08B5FFF78FFEC36CE2
:103C7000D87903EB8000083008BD00BF08B5FEF717
:103C8000E1F900BF08B5FFF7F9FF00BF10B5431E0B
:103C90000A44914204D011F8014B03F8014FF8E7B0
:103CA00010BD03460244934202D003F8011BFAE719
:103CB000704700000EB400B54FF402719CB0ADF82F
:103CC00014106FF00041049107914FF6FF711DAB86
:103CD00002900690084853F8042BADF816100068BF
:103CE00002A9019300F086F8029B00221A701CB012
:103CF0005DF804EB03B0704774000020034611F830
:103D0000012B03F8012B002AF9D17047034613F861
:103D1000012B002AFBD1181A01387047034610B551
:103D200042B111F8014B013A03F8014B002CF7D1D5
:103D30001A4400E010BD934202D003F8014BFAE7A9
:103D400010BD2DE9F0478E6882469E420C46914692
:103D500098463ED88A8912F4906F3AD0256809694E
:103D600002236F1A656905EB450595FBF3F57B1C8E
:103D700043449D4238BF1D4653050FD5294600F0E8
:103D80003FFB064698B13A462169FFF77FFFA389BA
:103D900023F4906343F08003A38113E02A4600F0EC
:103DA0008DFB064670B92169504600F0DDFA0C2300
:103DB000CAF80030A3894FF0FF3043F04003A381DD
:103DC000BDE8F08726613E44266046466561ED1BEE
:103DD000A560464528BF464649463246206800F061
:103DE000A7FAA36800209B1BA36023681E442660DB
:103DF000BDE8F0872DE9F04F9DB003938B89804695
:103E00001C060D4616460DD50B695BB9402100F026
:103E1000F7FA2860286118B90C23C8F80030CDE003
:103E200040236B610023099320238DF82930DFF8AC
:103E30009CB130238DF82A3037463C4614F8013BBC
:103E40001BB9B7EB060910D003E0252BF9D02746A4
:103E5000F3E74B46324629464046FFF772FF0130F2
:103E600000F0A780099B4B4409933B78002B00F09E
:103E7000A08000234FF0FF3204930793059206932E
:103E80008DF853301A930126052221784E4800F010
:103E900041FA671C049B38B14B4A3C46801A06FA2B
:103EA00000F018430490EFE7D90644BF20228DF8B4
:103EB00053201A0744BF2B228DF8532022782A2A38
:103EC00003D0079A00210A200BE0039A111D126803
:103ED0000391002A10DA524243F002000792049044
:103EE0000BE027463B780134303B092B03D800FB1D
:103EF00002320121F5E701B107923B782E2B1ED14A
:103F00007B782A2B0AD1039B02371A1D1B68039268
:103F1000002BB8BF4FF0FF33059310E00023194684
:103F20000593781C0A2407463A780130303A092A6A
:103F300003D804FB01210123F5E703B10591032216
:103F40003978224800F0E6F940B14023CBEB00007D
:103F500003FA00F0049B01371843049039780622D5
:103F60001B487E1C8DF8281000F0D4F988B1194B3D
:103F700033B9039B073323F007030833039314E09B
:103F800003AB00932A46144B04A94046AFF30080CC
:103F900007E003AB00932A460F4B04A9404600F00C
:103FA00093F8B0F1FF3F824603D0099B5344099335
:103FB00042E7AB895B0601D4099801E04FF0FF307E
:103FC0001DB0BDE8F08F00BFA8450008AE45000851
:103FD000B245000800000000433D00082DE9F0470D
:103FE00091461F460A698B6806469342B8BF13463E
:103FF000C9F8003091F843200C46DDF8208012B15A
:104000000133C9F800302368990642BFD9F800305F
:104010000233C9F80030256815F0060510D104F107
:10402000190A07E00123524639463046C04701309D
:104030001AD00135E368D9F800209B1A9D42F1DBC4
:1040400094F843302268003318BF012392060FD53D
:10405000E118302081F843005A1C94F8451022449E
:10406000023382F8431003E04FF0FF30BDE8F087E1
:1040700004F1430239463046C0470130F4D022688B
:10408000D9F80050E36802F00602042A08BF5D1B5D
:104090002269A3680CBF25EAE57500259342C4BFD9
:1040A0009B1AED184FF000091A344D4509D0012331
:1040B000224639463046C0470130D5D009F10109C2
:1040C000F3E70020BDE8F0872DE9F04317460A7EAC
:1040D00085B06E2A984606460C460C9B01F1430EAD
:1040E00000F0AE8011D8632A22D009D8002A00F04F
:1040F000BB80582A40F0CA8081F84520834955E0AA
:10410000642A1ED0692A1CD0C0E0732A00F0B08057
:1041100009D86F2A2ED0702A40F0B8800A6842F081
:1041200020020A603EE0752A24D0782A3AD0ADE019
:104130001A6801F14205111D1960136884F84230B4
:10414000A8E021681A6811F0800F02D0111D1960D3
:1041500008E011F0400F02F10401196002D0B2F939
:10416000003000E01368002B3CDA2D225B4284F81B
:10417000432037E021681A6811F0800F02D0111D2A
:10418000196007E011F0400F02F10401196001D03D
:10419000138800E01368227E5C496F2A14BF0A224C
:1041A00008221BE078225A4984F8452022681868C2
:1041B00012F0800F00F104051D6003D1550601D5F2
:1041C000038800E00368D00744BF42F02002226069
:1041D0001BB9226822F0200222601022002084F8FD
:1041E000430001E049490A226568002DA56008DB0B
:1041F000206820F0040020602BB9002D7DD1754689
:104200000CE0002B79D07546B3FBF2F002FB1033C3
:10421000CB5C05F8013D03460028F5D1082A0BD1F7
:104220002368DA0708D5236962689A42DEBF302323
:1042300005F8013C05F1FF35C5EB0E0323612EE0C7
:1042400008681A6810F0800F496903D0101D1860C3
:10425000136808E010F0400F02F1040018601368C2
:1042600001D0198000E0196000232361754616E033
:104270001A68111D1960156800216268284600F04F
:1042800049F808B1401B6060636804E004F142052E
:1042900084F8422001232361002384F84330CDF8C1
:1042A00000803B4603AA21463046FFF797FE0130C7
:1042B00002D14FF0FF3026E023692A4639463046C6
:1042C000C0470130F5D023689B0710D5002504F1C5
:1042D000190907E001234A4639463046C0470130F4
:1042E000E7D00135E368039A9B1A9D42F2DBE06850
:1042F000039B9842B8BF184605E00B7804F14205CD
:1043000084F842308AE705B0BDE8F083B94500087B
:10431000CA45000810B5C9B202449042034605D010
:104320001C7801308C42F8D1184610BD002010BD19
:10433000884210B501EB020301D8421E0BE09842FF
:10434000FBD28118D21AD34204D013F8014D01F8E0
:10435000014DF8E710BD994204D011F8014B02F865
:10436000014FF8E710BD000038B50546002944D0DC
:1043700051F8043C0C1F002BB8BFE41800F0D4F82F
:104380001E4A1368114613B96360146030E0A342FB
:104390000DD92268A018834201BF18685B68121803
:1043A000226063600C6023E0A24203D813465A687F
:1043B000002AF9D118681918A1420BD121680144CB
:1043C00058188242196013D110685268014419606C
:1043D0005A600DE002D90C232B6009E021686018B7
:1043E000824201BF106852680918216062605C60F7
:1043F0002846BDE8384000F098B838BD8802002053
:1044000070B5CD1C25F0030508350C2D38BF0C25E3
:10441000002D064601DBA94202D90C23336046E099
:1044200000F082F8234B1C681A462146A1B10B68A4
:104430005B1B0ED40B2B03D90B60CC18CD501EE0A8
:104440008C420BBF63684B681360636018BF0C46F7
:1044500015E00C464968E9E7174C23681BB930465C
:1044600000F052F820602946304600F04DF8431C19
:1044700018D0C41C24F00304A0420DD1256030469E
:1044800000F053F804F10B00231D20F00700C31ABD
:104490000ED05A42E25070BD211A304600F034F876
:1044A0000130EBD10C233360304600F03EF80020A1
:1044B00070BD00BF8802002084020020F8B50746C6
:1044C00015460E4621B91146BDE8F840FFF798BFE2
:1044D0001AB9FFF749FF2846F8BD00F027F88542D2
:1044E0000ED929463846FFF78BFF044650B13146B6
:1044F0002A46FFF7CBFB31463846FFF735FF01E090
:104500003046F8BD2046F8BD38B5064C00230546B8
:1045100008462360FDF788FD431C02D1236803B1E0
:104520002B6038BD140300207047704751F8040C0D
:104530000028BEBF091851F8043CC0180438704761
:104540004E304C49430000000000000041505A51D9
:10455000415000003E464958204F4B003E4E4F20F0
:10456000464958002125303264253032642E2530EA
:1045700032752563257325303364253032752E2539
:10458000303275256325732573257325730000006C
:104590005465737479207472616B657261000000F8
:1045A0005B0000002F000000232D302B2000686CE2
:1045B0004C00656667454647003031323334353646
:1045C000373839414243444546003031323334357F
:0B45D0003637383961626364656600AD
:1045DC0008B10181B0B000840000000008B1018175
:0845EC00B0B0008400000000E3
:1045F400E8CFFF7FB0A8038014D0FF7F0100000044
:1046040024D0FF7F0084088064D0FF7F03AB328016
:104614001CD2FF7F010000006CDDFF7FAD08B1807C
:104624002CDEFF7FAB08B18038DFFF7F0100000084
:1046340098E0FF7FB0B0AE802CE1FF7FB0B0A880DF
:104644007CE1FF7F01000000F8E7FF7FB0A9028052
:1046540094E8FF7FB0B0A880E4E8FF7F0100000089
:10466400F0E8FF7FB0B0AA8028E9FF7FAE71B28086
:10467400F4E9FF7F01000000F0E9FF7FAB3F3880E1
:1046840048EAFF7F0100000054EAFF7FB0B0AA802F
:1046940090EAFF7F0100000048EBFF7FAB0EB28081
:1046A400B0EBFF7FB0AF0A8084EEFF7F0100000013
:1046B40088EEFF7FAB3F0480D0F0FF7F0100000055
:1046C400ACF2FF7F00840480C0F2FF7F0100000091
:1046D400BCF2FF7FB0AD048058F5FF7FB0A8038023
:1046E40078F5FF7FF4FEFF7F7CF5FF7FF8FEFF7F08
:0846F40088F5FF7F01000000C2
:1046FC00000000000102030401020304060708097C
:10470C000204060800000000000000000000000089
:10471C00000000000000000000000000000000008D
:10472C00000000000000000000000000000000007D
:10473C00000000000000000000000000000000006D
:10474C00000000000000000000000000000000005D
:10475C00000000000000000000000000000000004D
:08476C00000000001400002011
:0400000508000000EF
:00000001FF
