:020000040800F2
:1000000040070020510300084D0300084D0300087D
:100010004D0300084D0300084D03000800000000D8
:100020000000000000000000000000004D03000878
:100030004D030008000000004D0300084D030008B8
:100040004D0300084D0300084D0300084D03000850
:100050004D0300084D0300084D0300084D03000840
:100060004D0300084D0300084D0300084D03000830
:100070004D0300084D0300084D0300084D03000820
:100080004D0300084D0300084D0300080000000068
:100090000000000000000000000000004D03000808
:1000A0004D0300084D0300084D0300084D030008F0
:1000B000A5070008290200084D0300084D030008A9
:1000C0004D0300084D0300084D0300084D030008D0
:1000D0004D0300086D0700084D0300084D0300089C
:1000E0004D0300084D0300084D0300080000000008
:1000F0000000000000000000000000000000000000
:1001000000000000000000000000000000000000EF
:1001100000000000000000004D0300084D0300082F
:100120005FF808F130B5012185B01A4D022001F0C9
:1001300079FD0021022001F091FD002405232846CD
:1001400001A9ADF80430ADF80640ADF80840ADF8AF
:100150000A408DF80C4000F079F82846012100F0A3
:10016000F1F801221146284600F0D2F801231D22A1
:1001700068468DF800208DF802308DF803308DF838
:10018000014002F02DF92146284600F0B3F805B0F1
:1001900030BD00BF0004004010B5044600210D48EA
:1001A00000F0A8F821460B4800F0BEF800210948ED
:1001B00000F0B8F80121074800F09CF8064A002337
:1001C00013701378002BFCD000210248BDE81040CA
:1001D00000F090B800040040A8020020F8B170B50B
:1001E00005460F4C002600210E4800F083F84FF41E
:1001F0007A710C4800F098F800210A4800F092F853
:100200000121084800F076F826702378002BFCD0F6
:100210000021044800F06EF8013DE4D170BD704744
:10022000A80200200004004008B50121054800F0A4
:100230007DF830B10121034800F084F8024B01221F
:100240001A7008BD00040040A8020020264A038856
:1002500090429BB212D002F5006290420ED0B0F1F3
:10026000804F0BD0A2F59832904207D002F5806201
:10027000904203D002F58062904203D14A8823F075
:1002800070031343194A904226D002F580629042CF
:1002900022D0CA8870B423F44073134C8E880D8822
:1002A0009BB21343A0420380868505850ED0104B78
:1002B00098420BD003F54063984207D003F5806362
:1002C000984203D003F58063984201D10B7A0386EC
:1002D0000123838270BC704703808B8883850B88E1
:1002E0000385012383827047002C014000100040E9
:1002F00000340140038829B923F001031B041B0CBF
:10030000038070479BB243F001030380704700BF36
:1003100083899BB21AB923EA01018181704719438D
:10032000818170478184704781857047038A828903
:1003300011EA030092B203D0114214BF0120002041
:10034000704700BFC94389B201827047FEE700BF12
:1003500008B50C480C4B984207D2C2431A4422F00D
:1003600003020432094904F079F9094809494FF0B8
:1003700000028842B8BF40F8042BFADBBDE8084011
:1003800000F026BA000000208C0000200851000870
:100390008C0000203C03002030B4CD78EB0648BF31
:1003A0008B7805F00F0448BF1C430B8813F0FF0F38
:1003B00033D0482D026800F09980282D00F0FB8092
:1003C000D90744BF22F00F022243990744BF22F00D
:1003D000F00242EA0412590744BF22F4706242EA72
:1003E0000422190744BF22F4704242EA0432D906BB
:1003F00044BF22F4702242EA0442990644BF22F428
:10040000700242EA0452590644BF22F0706242EA86
:100410000462190600F19F800260FF2B31D9282D5C
:10042000426830D0482D00F09980D90544BF22F0B1
:100430000F0222439D0544BF22F0F00242EA04125B
:10044000590544BF22F4706242EA04221D0544BFEC
:1004500022F4704242EA0432D90444BF22F47022EA
:1004600042EA04429D0444BF22F4700242EA04526C
:10047000590444BF22F0706242EA04621B0467D44C
:10048000426030BC704703F4807189B2002940F0AB
:10049000118103F4007189B2002940F0058103F451
:1004A000806189B2002940F0F98003F4006189B2CB
:1004B000002940F0ED8003F4805189B2002940F01A
:1004C000E18003F4005189B2002940F0D58003F4A3
:1004D000804189B2002940F0C98003F400439BB2F7
:1004E000002BCDD064F31F724361C9E713F0010103
:1004F00040F0038103F0020189B2002940F0F78047
:1005000003F0040189B2002940F0EB8003F00801F8
:1005100089B2002940F0DF8003F0100189B2002980
:1005200040F0D38003F0200189B2002940F0C78059
:1005300003F0400189B2002940F0E48003F080011B
:1005400089B200293FF468AF64F31F72016163E769
:1005500064F31F7294E764F31F725DE703F4807124
:1005600089B200296BD103F4007189B2002960D1EE
:1005700003F4806189B2002955D103F4006189B286
:1005800000294AD103F4805189B2002962D103F4D1
:10059000005189B2002957D103F4804189B2002962
:1005A0005ED103F400439BB2002B3FF469AF64F3C8
:1005B0001F72036164E713F0010140F0CD8003F086
:1005C000020189B2002940F0C18003F0040189B220
:1005D000002940F0B58003F0080189B2002940F0FD
:1005E000A98003F0100189B2002940F09D8003F03A
:1005F000200189B2002940F0918003F0400189B2C6
:10060000002940F0858003F0800189B200293FF481
:1006100003AF64F31F724161FEE622F4704242EAC6
:1006200004320161AEE722F4706242EA0422016101
:10063000A3E722F0F00242EA0412016198E722F0F7
:100640000F02224301618EE722F4700242EA045253
:100650000161A1E722F4702242EA0442016196E7B7
:1006600022F0706242EA046201619AE722F070624D
:1006700042EA0462416130E722F4700242EA045225
:10068000416124E722F4702242EA0442416118E702
:1006900022F4704242EA043241610CE722F47062B3
:1006A00042EA0422416100E722F0F00242EA041229
:1006B0004161F4E622F00F0222434161E9E622F4AF
:1006C000700242EA0452016132E722F4702242EAE7
:1006D0000442016126E722F4704242EA04320161D9
:1006E0001AE722F4706242EA042201610EE722F066
:1006F000F00242EA0412016102E722F00F022243F3
:100700000161F7E622F0706242EA0462016115E7D6
:1007100022F0706242EA0462416174E722F47002DE
:1007200042EA0452416168E722F4702242EA04423C
:1007300041615CE722F4704242EA0432416150E7D1
:1007400022F4706242EA0422416144E722F0F0029E
:1007500042EA0412416138E722F00F02224341616C
:100760002DE700BF016170474161704708B540F255
:1007700025510B4801F022FD48B94FF45871084843
:1007800001F01CFDBDE80840054801F00DBD04481E
:1007900001F00AFDBDE80840C0B200F05BBC00BF3C
:1007A0000038014008B501214FF08040FFF7BEFD41
:1007B00000B908BD01214FF08040FFF7C3FD00F0F4
:1007C00063FF0028F5D0BDE8084000F057BF00BF28
:1007D0002DE9F04190B000F0CBFC00F0C3FC00F03C
:1007E000EDFCFFF79FFC00F091F94FF48071564843
:1007F000FFF7B8FF0C21554801F0D2FC01F05CFB7B
:10080000534801F069FA012200216D2001F034FA09
:1008100001220021712001F02FFA01222021122053
:1008200001F02AFA01220021132001F025FA012209
:100830000021122001F020FA464C012280210F20D5
:1008400001F01AFA0022012322702546637000F09D
:10085000FBFE414E0DF11C0823780BB96B7853B9A0
:100860000021102001F0FCFD30BF2378002BF7D1D0
:100870006B78002BF4D0404600F02EF90A9802F075
:10088000E7F92FA3D3E9002302F048FA02F058FC5D
:1008900004283DDC4FF41673336033680F9A73609D
:1008A000616873680B449A42D6D900212B486A606C
:1008B00001F04CFC80212448FFF754FF4FF4807175
:1008C0002148FFF751FF01F01DFB9DF83030022B4E
:1008D0002AD9AB68012B2CD0EE460BAF0FCFAEE878
:1008E0000F003F6898E80F00CEF8007000F022FF7C
:1008F00001F0BCFA0121194801F028FC4FF4807185
:100900001148FFF72FFF80210F48FFF72DFFA3E7C6
:10091000831F5C2B03D800F253203060BDE76328AF
:10092000C4BF1E233360B8E700F0DCFE0123AB60D8
:10093000DEE700F0AFFE0023AB60CDE7AFF3008051
:100940003BDF4F8D976EA23F000C014000480040F6
:100950000040D8438C0000200000002000380140F7
:100960002DE9F0471F464318DBB2DC19E4B24FEA29
:10097000172904EB090603441C44F6B234448046AC
:100980008A461546E4B24FB10023EA5C01331644AF
:10099000F6B2DBB234449F42E4B2F6D840214D486F
:1009A00001F006FC0028F9D0B5214A4801F0F8FB17
:1009B0004021484801F0FCFB0028F9D0402145487F
:1009C00001F0F6FB0028F9D06221424801F0E8FB73
:1009D0004021404801F0ECFB0028F9D040213D487F
:1009E00001F0E6FB0028F9D041463A4801F0D8FB77
:1009F0004021384801F0DCFB0028F9D0402135487F
:100A000001F0D6FB0028F9D05146324801F0C8FB6E
:100A10004021304801F0CCFB0028F9D040212D487E
:100A200001F0C6FB0028F9D039462A4801F0B8FB8E
:100A30004021284801F0BCFB0028F9D0402125487E
:100A400001F0B6FB0028F9D04946224801F0A8FB86
:100A50004021204801F0ACFB0028F9D0BFB1013F94
:100A6000BFB22F44013D15F8018F4021194801F014
:100A70009FFB0028F9D04146164801F091FB402128
:100A8000144801F095FB0028F9D0AF42EBD140218A
:100A9000104801F08DFB0028F9D031460D4801F0D7
:100AA0007FFB40210B4801F083FB0028F9D0402157
:100AB000084801F07DFB0028F9D02146054801F0E7
:100AC0006FFB4021034801F073FB0028F9D0BDE81B
:100AD000F08700BF00380140F0B472B604460A4EF9
:100AE00006F1200735460FCDBD4220606160A2604F
:100AF000E36006F1100604F11004F3D130682060C1
:100B000062B6F0BC704700BFAC0200202DE9F04196
:100B10006225FEB02A46002101A803F0AAFD4FF687
:100B2000FF7201240423214606274FF0B5084FF435
:100B30001640ADF80A208DF80730ADF808308DF872
:100B400005508DF806708DF80C408DF8048000F08B
:100B5000B5FA0A20FFF742FBBDF808300DF10A0292
:100B60009DF807109DF80600FFF7FAFE4FF4487055
:100B7000FFF734FB21464FF4165000F09FFA0A208D
:100B8000FFF72CFBBDF808300DF10A029DF80710A5
:100B90009DF80600FFF7E4FE4FF44870FFF71EFBD8
:100BA0000DF16D062A4600211AA803F062FD3346B6
:100BB00000224FF0140E4FF40C604FF416418DF8E4
:100BC00069508DF86A708DF86E40ADF87A40ADF8D6
:100BD0007C408DF86880ADF86CE0ADF87200ADF83F
:100BE0007610ADF87420ADF878200DF1810740251E
:100BF0001A2413F8012F1444E4B22544BB42EDB289
:100C0000F7D14021A54801F0D3FA0028F9D0B52149
:100C1000A24801F0C5FA4021A04801F0C9FA002815
:100C2000F9D040219D4801F0C3FA0028F9D0622193
:100C30009A4801F0B5FA4021984801F0B9FA002825
:100C4000F9D04021954801F0B3FA0028F9D00621E7
:100C5000924801F0A5FA4021904801F0A9FA002835
:100C6000F9D040218D4801F0A3FA0028F9D00021E5
:100C70008A4801F095FA4021884801F099FA002845
:100C8000F9D04021854801F093FA0028F9D01421C9
:100C9000824801F085FA4021804801F089FA002855
:100CA000F9D040217D4801F083FA0028F9D00021D5
:100CB0007A4801F075FA4021784801F079FA002865
:100CC000F9D016F8018F4021744801F071FA00281C
:100CD000F9D04146714801F063FA40216F4801F0B4
:100CE00067FA0028F9D0BE42EBD140216B4801F0F1
:100CF0005FFA0028F9D02146684801F051FA4021F6
:100D0000664801F055FA0028F9D04021634801F007
:100D10004FFA0028F9D02946604801F041FA4021F5
:100D20005E4801F045FA0028F9D001214FF4164041
:100D300000F0C4F962270A20FFF750FA584C3A46EF
:100D4000002133A803F095FC11254FF0060E022276
:100D500070462946134626468DF8CD70B5278DF886
:100D6000CC7008278DF8D27004278DF8D3708DF8D9
:100D7000CEE08DF8CF50ADF8D02000270DF1D20293
:100D8000FFF7EEFDC9252770677007E073784BB950
:100D9000FFF724FA6B1E13F0FF0503D02378012020
:100DA000002BF3D0237833B99DF8CE009DF8CF10F7
:100DB000BDF8D030E2E762273A4600214CA803F0A4
:100DC00058FC0125032229461346062630468DF895
:100DD00031714FF0B50E02278DF83261304E8DF82B
:100DE00037718DF833518DF83651ADF834218DF8C7
:100DF00038218DF830E100270DF59B72FFF7B0FD2B
:100E0000C9252770677007E073784BB9FFF7E6F9DB
:100E10006B1E13F0FF0503D023780120002BF3D0C5
:100E2000237833B99DF832019DF83311BDF8343180
:100E3000E2E712231A4E8DF837310027BDF834311E
:100E40000DF59B729DF833119DF83201FFF788FD77
:100E5000C9252770677007E073784BB9FFF7BEF9B3
:100E60006B1E13F0FF0503D023780120002BF3D075
:100E70002378002BE2D00623094E8DF83731002766
:100E8000BDF834310DF59B729DF833119DF8320198
:100E9000FFF766FDC925277067700BE00038014039
:100EA000A400002073784BB9FFF798F96B1E13F07C
:100EB000FF0503D023780120002BF3D02378002BEB
:100EC000DED04FF062084246002165A803F0D1FB56
:100ED00042F2107E40F2FF3C0626242200253046D6
:100EE0008DF89661B526134611462F468DF8972149
:100EF000ADF89821ADF8A451072202258DF8946130
:100F00000526ADF8A2E18DF89C218DF89D5119229E
:100F10008DF8B1514FF0640E8DF8A6614FF49675BF
:100F2000164E8DF89581ADF89AC1ADF8A821ADF8AF
:100F3000AA21ADF8ACE1ADF8AE510DF5CD72FFF7D9
:100F40000FFDC9252770677007E073784BB9FFF76D
:100F500045F96B1E13F0FF0503D023780120002B09
:100F6000F3D0237833B99DF896019DF89711BDF819
:100F70009831E2E77EB0BDE8F08100BFA400002018
:100F8000F0B5324E00F1060C336A023333628778D3
:100F900090F803E0858807EB0E01C9B24A19D2B276
:100FA0007B1802EB1521C9B21A440A44D2B255B1DA
:100FB00000231CF8034001332144C9B2DBB20A44C8
:100FC0009D42D2B2F5D81CF805400CEB05038C42CB
:100FD00003D0338B01333383F0BD5B789342F8D178
:100FE000012F02D0052F10D0F0BDBEF1020F1CD092
:100FF000BEF1060F13D0BEF1120FF5D1D0F81E309E
:10100000F361D0F81630F360EEE7BEF1010F19D0AE
:10101000BEF1000FE8D10E4B01225A70F0BD027CE8
:1010200090F8353032753374F0BDF38A0133F382B2
:10103000D0F80E303360D0F80A307360D0F8163034
:10104000B360F0BD024B83F800E0F0BDAC020020BD
:10105000A400002010B5184CA37833B9E378BBB9CD
:10106000B52825D00023E37010BDE378E218042BE7
:10107000107104D92289591E0832914211D00133CE
:10108000DBB2632B89BF0023E370E370A37010BD54
:10109000012BE7D16228E5D10222A3706071E270D2
:1010A00010BD201DFFF76CFF0023E370A37010BD7F
:1010B00001232071E37010BDA40000202DE9F04150
:1010C00080460F46244D202682B0002240F2255152
:1010D0002248C5F8846001F047F840F225511F48C6
:1010E00001F090F84FF458711C4801F08BF8002182
:1010F0001A4801F02BF801214FF4804000F084FDE4
:10110000174B002219460C2414485C819A80DA801F
:101110001A819A81C3F80080012400F0B9FF2521CB
:101120000F22022301A88DF804108DF805208DF8F8
:1011300006308DF8074001F053F92146074801F0C9
:1011400005F837B1224640F22551044801F00CF869
:101150006E6002B0BDE8F08100E100E000380140BF
:10116000FC02002000214FF0006001F06FB900BFC9
:1011700010B500F053FC4FF4803000F073FC00F029
:101180008DFC012800D010BD0446102001F05CF851
:10119000022001F04FF8902000F0ACFC4FF4A0606A
:1011A00000F0BCFC4FF4806000F0AEFC204600F084
:1011B0008FFC00F097FC0428FBD110BD2DE9F04F07
:1011C000C34C85B001210420012500F01DFD10262F
:1011D0004FF480532146BF482380E670A570FFF787
:1011E000DBF82946082000F00FFD4FF4C0732146BC
:1011F000B9481827E6702380A570FFF7CDF84FF4A3
:1012000020432146B44823804FF480484FF0040B1C
:10121000E770A570FFF7C0F82146AF48A4F800803A
:1012200084F803B0FFF7B8F83046294600F0ECFC2C
:101230004FF400532146A948E6702380A570FFF7BC
:10124000ABF84FF400432146A348DFF8B89223805F
:10125000E770A570FFF7A0F84046294600F0E2FCD1
:101260000723A9F810304FF40063002649464FF4D5
:10127000827A9B48A9F80430A9F80C70A9F802A05A
:10128000A9F80060A9F80660A9F80860A9F80E603E
:1012900001F028F92946924801F058F9294690486A
:1012A00001F040F949468E48A9F802A001F01AF968
:1012B0004FF400732146874823804FF4806AE7701B
:1012C000A570FFF769F82146824884F803B0A4F8B6
:1012D00000A0FFF761F8834B2021C3F88410324649
:1012E00040F22551804800F03FFF40F225517E48F2
:1012F00000F088FF4FF458717B48DFF80C9200F043
:1013000081FF3146784800F021FF4046294600F031
:101310007BFC0C224FF4165349467348A9F80A2067
:101320000192C9F800304FF00208A9F80460A9F84A
:101330000660A9F80860A9F80C6000F0A9FE4FF05B
:10134000250E0F2103A88DF80CE08DF80D108DF8F7
:101350000F508DF80E8001F043F82946624800F0E6
:10136000F5FE21465C48E770A4F800A0A570FFF7E1
:1013700013F84FF4006321465748238084F803B0E4
:10138000FFF70AF8574B8027C3F884703146574857
:1013900000F0DCFE29464FF4802000F043FC019A67
:1013A0004FF4964349465148A9F80A20C9F800303D
:1013B000A9F80460A9F80660A9F80860A9F80C600B
:1013C00000F066FE2946494800F0C0FE294628463E
:1013D00000F00CFC4648DFF834B100F041FF454B0B
:1013E00029464548CBF80430CBF80C80CBF8086090
:1013F000CBF8286000F0DAFD404ACBF814702027C3
:101400004FF4807359463A48CBF820704FF4005798
:10141000CBF80020CBF81830CBF81CA0CBF810602C
:10142000CBF8247000F0B0FF2946314800F0CCFF23
:101430004023214627482380E670FEF7ADFF4FF09A
:101440002003214623482380E670FEF7A5FF30469F
:1014500000F06EFB29464FF4007000F0D5FB284BDE
:101460004FF46022194624489A601E601D715D7118
:10147000DE6083F8108000F06BFD2A46032305210F
:101480001D4800F0BBFD4246032306211A4800F028
:10149000B5FD2946184800F089FD1748294600F097
:1014A0007BFD154800F08CFD134800F08FFD0028EF
:1014B000FAD1114800F08EFD0F4800F091FD002890
:1014C000FAD101210C4800F08FFD05B0BDE8F08F86
:1014D000E402002000080140000C0140001001401F
:1014E0000038004000E100E00038014000480040C2
:1014F000080002409C020020002401404C240140CE
:10150000D0020020E8020020FC0200200C03002092
:101510001C4B2DE9F0414FF40042012619464FF0D3
:1015200018081948194C1A4D1A8083F803809E70C8
:10153000FEF732FF31464FF4804000F073FB4FF46A
:101540000060002307224FF482772146A0802846BE
:1015500022822380E3802381E381A4F80C806780CA
:1015600000F0C0FF3146284600F0F0FF3146284623
:1015700000F0D8FF284621466780BDE8F04100F022
:10158000B1BF00BFE4020020000C0140E8020020CF
:101590000038004038B5084800F06EFF074B4FF4A4
:1015A00000451024012219461D80DC709A70044801
:1015B000BDE83840FEF7F0BE00380040E4020020ED
:1015C000000C014030B50446012185B0084600F00A
:1015D00029FB0021012000F041FB1A4B052293FB5F
:1015E000F4F301A90024013B4FF08040ADF808302E
:1015F000ADF80420ADF80640ADF80A408DF80C4077
:10160000FEF724FE01214FF08040FEF79BFE0122F1
:1016100011464FF08040FEF77BFE01251C236846F3
:101620008DF800308DF801408DF802508DF8035090
:1016300000F0D6FE29464FF08040FEF75BFE05B075
:1016400030BD00BF40420F0010B50848084C84B0C0
:10165000002230214223019002910093039411460D
:10166000044B054801F028F904B010BD204F0008D4
:10167000184F0008104F000810010020014801F029
:1016800069B900BF10010020014B93F87001704749
:101690001001002070B50E4C0E4E0F4D8CB0002284
:1016A0003021422320460291009311460396019572
:1016B0000A4B01F001F90A4A04AB92E8030083E8FF
:1016C00003001946204601F043F80CB070BD00BF7E
:1016D00010010020584F0008204F0008104F00084C
:1016E000284F000870B50E4C0E4E0F4D8CB00022E6
:1016F0003021422320460291009311460396019522
:101700000A4B01F0D9F80A4A04AB92E8030083E8D7
:1017100003001946204601F01BF80CB070BD00BF55
:1017200010010020584F0008204F0008104F0008FB
:10173000304F000884B02DE9F04FA54CC71784FB4B
:101740000054B5B0C7EBA4043EAD002C85E80F00F3
:1017500040F3CB809F4DA04B85FB0026C7EBA656E0
:1017600075B203FB05449D4FC4EB0414A40087FB32
:1017700004379B4AE31782FB0424C3EBA74707EB1C
:101780008709C3EB2434C7EBC90904EB89095FFA65
:1017900089F93F998E4BC81783FB0123C0EBA30344
:1017A000002B40F3C6808B4C8B4A84FB0141C0EB7D
:1017B000A1514CB202FB0433884EC3EB03139B00D0
:1017C00086FB03268649DA1781FB0313C2EBA64684
:1017D000DFF814A206EB8608C2EB2333C6EBC80879
:1017E000DAF8782103EB88085FFA88F8002A00F01D
:1017F000CA80DAF87831012B00F0D580DAF8783138
:10180000022B00F0E180DAF8783140990133CAF810
:101810007831DAF878317348022B734A84BF002399
:10182000C2F87831CA1780FB01134FF44D61C2EB47
:10183000A31301FB03F380FB03120DF1440ADB1732
:10184000C3EBA2125046694902F01CFF4199C22322
:1018500003FB01F14598624B654A400983FB01E3B4
:10186000A2FB00020DF13C0BC917C1EB2333D209D7
:101870005846604902F006FF002D84EAE472D4BFA6
:101880004FF0530E4FF04E0EA2EBE472002C5A486C
:101890005A4C5B49D4BF4FF0570C4FF0450CF3B294
:1018A00003920DAE85EAE5720493CDF804E0FBB235
:1018B000CDF818C0A2EBE57207900291CDF824A0F4
:1018C000CDF820B0CDF81480CDF800900A9414A87B
:1018D0000B964C4902F0D6FE14A9434800F038FF9D
:1018E00035B0BDE8F04F04B070473C4F634287FB12
:1018F0000325DB17C3EBA545374B6AB203FB02F3A5
:101900001C1BC4EB0414A40087FB0437344AE31700
:1019100082FB0424C3EBA74707EB8709C3EB2434FE
:10192000C7EBC9096D4204EB89096DB25FFA89F909
:101930002FE72A4E5A4286FB0214D217C2EBA44468
:10194000254A61B202FB01F2D31AC3EB03139B00D9
:1019500086FB03262249DA1781FB0313C2EBA64656
:10196000DFF884A006EB8608C2EB2333C6EBC80879
:10197000DAF87821644203EB880864B25FFA88F8E9
:10198000002A7FF436AFDFF888E01F483021422379
:10199000019002910093CDF80CE01C4B114650468B
:1019A00000F08AFF2FE7DFF86CE017483021422370
:1019B0000022019002910093CDF80CE01146134BE8
:1019C000504600F079FF1EE7DFF84CE0EDE700BF7E
:1019D000676666666BCA5F6BC0BDF0FF83DE1B4344
:1019E000AD8BDB68D34D621010010020504F000812
:1019F000C55A7C0A5C4F0008AC4F0008944F0008A1
:101A0000B04F0008684F0008204F0008104F000832
:101A1000584F0008384F0008404F00080F4B10B4D3
:101A200019680F4A41F0010119605C684FF41F000A
:101A300022405A601A68002122F0847222F4803217
:101A40001A601A6810BC22F480221A605A6822F4C4
:101A5000FE025A609860D962704700BF00100240D1
:101A60000000FFF80C4BB0F5803F1A6822F480327A
:101A70001A601A6822F480221A6008D0B0F5802F0C
:101A800004D11A6842F4A0221A60704770471A689D
:101A900042F480321A6070470010024082B0002386
:101AA0000A4A019302E0B3F5A06F08D0136813F45B
:101AB000003F019B03F101030193019BF3D0034B12
:101AC0001868C0F3404002B0704700BF00100240E9
:101AD000034A536823F0030318435060704700BF64
:101AE00000100240024B586800F00C00704700BF25
:101AF00000100240034A536823F0F003184350607B
:101B0000704700BF00100240034A536823F4E063AB
:101B100018435060704700BF00100240034A5368EA
:101B200023F4605343EAC000506070470010024045
:101B3000034A536823F4404318435060704700BF82
:101B400000100240244910B44B6803F00C03042B2E
:101B500033D0082B25D00BB3204A134602601E4A0F
:101B60001F495468C4F303140C5DE3404360546898
:101B7000C4F302240C5D23FA04F484605468C4F3B3
:101B8000C2240C5DE340C360526810BCC2F38132D2
:101B90000A44127CB3FBF2F3036170470F4B0360FE
:101BA000DDE74B684C68C3F383439A1CE30307D417
:101BB0000C4B03FB02F30360D1E70B4B0360CEE752
:101BC000CB6A094903F00F030133B1FBF3F302FBC6
:101BD00003F30360C3E700BF0010024000127A0065
:101BE0001400002000093D0000366E0129B9054AA5
:101BF000536923EA000050617047024B5A69104351
:101C0000586170470010024029B9054A936923EAD8
:101C1000000090617047024B9A69104398617047C9
:101C20000010024029B9054AD36923EA0000D061B7
:101C30007047024BDA691043D861704700100240C8
:101C400029B9054AD36823EA0000D0607047024BE7
:101C5000DA681043D86070470010024029B9054A7D
:101C6000136923EA000010617047024B1A691043A0
:101C7000186170470010024010B51ABB000200B294
:101C800040EA01044FF400511148A4B2FEF76CFD84
:101C90000221104800F068FC0028F9D021460D48C8
:101CA00000F04EFC01210B4800F05EFC0028F9D04A
:101CB0004FF400510648FEF755FD064800F042FC7F
:101CC000C0B210BD40F08000000200B2D8E700BFF3
:101CD000001001400038004070B55C49064601F034
:101CE00065FB5B49054601F013FD5A49041C284673
:101CF00018BF012401F00EFC01F01EFDA500C0B2CA
:101D00001838651B00EBC505601C95FBF0F501F06C
:101D1000F9FA514901F04AFB0146304601F0FAFB5D
:101D20000646E8B201F0EEFA0146304601F034FA18
:101D30004A4901F031FA4A4901F038FB01F0FCFC54
:101D40004FF4005186B24748FEF70EFD0221464887
:101D500000F00AFC0028F9D04FF20A21424800F0B6
:101D6000EFFB0121404800F0FFFB0028F9D04FF4C1
:101D700000513C4805F01F05FEF7F4FC45EA441409
:101D8000394800F0DFFB44F475444FF40051354806
:101D900044F04004FEF7E8FC0221334800F0E4FB85
:101DA0000028F9D02146304800F0CAFB01212E4816
:101DB00000F0DAFB0028F9D04FF400512948FEF773
:101DC000D1FC294800F0BEFB340A4FF400512548ED
:101DD00044F47644FEF7C8FC0221234800F0C4FB1B
:101DE0000028F9D02146204800F0AAFB01211E4816
:101DF00000F0BAFB0028F9D04FF400511948FEF763
:101E0000B1FC194800F09EFBF6B24FF400511548A2
:101E100046F47746FEF7A8FC0221134800F0A4FB25
:101E20000028F9D03146104800F08AFB01210E4805
:101E300000F09AFB0028F9D00A484FF40051FEF751
:101E400091FCBDE87040084800F07CBB3BB1933F7B
:101E50000000F04300002041ABAA0A410000C0414D
:101E600000007A47001001400038004008B54FF4E8
:101E700000510F48FEF778FC02210E4800F074FB79
:101E80000028F9D048F240710A4800F059FB0121BE
:101E9000084800F069FB0028F9D005484FF40051CC
:101EA000FEF760FCBDE80840024800F04BBB00BFF5
:101EB000001001400038004008B54FF400510F48B1
:101EC000FEF752FC02210E4800F04EFB0028F9D02C
:101ED00048F280710A4800F033FB0121084800F005
:101EE00043FB0028F9D005484FF40051FEF73AFCB7
:101EF000BDE80840024800F025BB00BF00100140CB
:101F00000038004008B54FF400510F48FEF72CFC94
:101F100002210E4800F028FB0028F9D048F2487151
:101F20000A4800F00DFB0121084800F01DFB0028C5
:101F3000F9D005484FF40051FEF714FCBDE8084005
:101F4000024800F0FFBA00BF001001400038004016
:101F500042680B6822F4702230B422F480720C794B
:101F6000134343EA042343608568CC688A68094BBD
:101F700022432B404C79134343EA440383600A7C99
:101F8000C36A013AD2B223F4700343EA0253C36234
:101F900030BC7047FDF7F1FF836819B923F00103E6
:101FA0008360704743F0010383607047836819B909
:101FB00023F480738360704743F4807383607047B9
:101FC000836843F008038360704700BF8068C0F3F4
:101FD000C0007047836843F004038360704700BF0C
:101FE0008068C0F380007047836819B923F4A003A8
:101FF0008360704743F4A00383607047092970B47D
:102000001DD9A1F10A0606EB4606C5680724B440AF
:10201000B34025EA04042343062AC3601BD90C2AD3
:1020200027D90D3A02EB8202C36A1F24944001FAB9
:1020300002F223EA04010A43C26270BC704701EB5A
:10204000410605690724B440B34025EA040423434C
:10205000062A0361E3D8013A02EB8202436B1F2494
:10206000944001FA02F223EA04010A43426370BC7D
:102070007047073A02EB8202036B1F24944001FA77
:1020800002F223EA04010A43026370BC704700BFF6
:1020900030B504460D46038ACA889BB223F44053E8
:1020A0001343038282890B89888892B2498903434A
:1020B00022F4B0520B4322F00C0213439BB2A381D3
:1020C000A38AAA899BB223F4407387B01343A382E7
:1020D00001A8FFF737FD04991A48039BA28984429F
:1020E00008BF0B4612F4004F2A6803EB830314BFAA
:1020F0005200920003EB8303B3FBF2F3124DA1896C
:10210000A5FB03206422400900FB12330A044FEAB6
:1021100000100AD41A013232A5FB0223C3F3431381
:1021200003439BB2238107B030BDD9003231A5FBF8
:102130000131C1F3421242EA00039BB2238107B08E
:1021400030BD00BF003801401F85EB51838929B99C
:1021500023F400531B041B0C838170479BB243F490
:1021600000538381704700BF10B401F01F04C1F316
:1021700042110123012903FA04F30FD002290CBFF5
:10218000103014302AB9026810BC22EA030303603D
:102190007047026810BC1343036070470C30F1E7CE
:1021A000C1F30801818070478088C0F30800704740
:1021B0000388194214BF012000207047C1F3421266
:1021C00010B4012301F01F04012A03FA04F315D00F
:1021D000022A0CBF028A828A92B21340028892B20B
:1021E0004BB10123090A03FA01F10A4214BF184650
:1021F000002010BC7047184610BC7047828992B20C
:102200001340EBE7090A012303FA01F1C94389B23C
:1022100001807047044A05491368002B08BF0B462C
:1022200018441060184670478C0200203C030020C0
:10223000FEE700BF034A136803F038031843106039
:10224000704700BF00200240044B1A6822F01002C1
:102250001A601A6810431860704700BF00200240DF
:102260004FF6FE7203683A491A4088424FF0000365
:102270000260036043608360C36027D0354B98429F
:102280002AD0354B98422DD0344B984230D0344B25
:10229000984239D0334B98423CD0334B98420FD0C0
:1022A000324B98423CD0324B98423FD0314B98420F
:1022B00042D0314B984245D0304B98421ED07047A7
:1022C0002F4A536843F07063536070472C4A536839
:1022D00043F00F0353607047294A536843F0F003FB
:1022E00053607047264A536843F4706353607047E5
:1022F000234A536843F4704353607047214A53683C
:1023000043F470235360DAE71D4A536843F47023A3
:10231000536070471A4A536843F470035360704720
:10232000184A536843F00F0353607047154A5368C7
:1023300043F0F00353607047124A536843F47063EC
:10234000536070470F4A536843F4704353607047BB
:10235000080002401C0002403000024044000240DD
:10236000580002406C000240800002400804024015
:102370001C0402403004024044040240580402405D
:1023800000000240000402400A6A70B48D680B69C4
:102390002A434D6913438A691D43CB6945EA020408
:1023A00002684D6A23438C6A1D4322F4FF43CE68C2
:1023B0004A682C4323F070030D6823430360466092
:1023C0008560C26070BC704729B94FF6FE73026821
:1023D000134003607047036843F0010303607047D4
:1023E000C3785BB9037801215A09164803F01F032B
:1023F000203201FA03F340F822307047124B30B418
:10240000D9688278C9434478C1F302210F23C1F10E
:102410000405CB40AC401340027823431B0102F17A
:102420006042DBB202F5614282F800330378012298
:1024300003F01F0003495B09824041F8232030BCB0
:10244000704700BF00E100E000ED00E021F06041D6
:1024500021F07F01014B08439860704700ED00E0D8
:10246000044A136919B923EA000010617047184340
:102470001061704700ED00E008B5174B984212D08C
:10248000164B98421BD0164B984200D008BD012134
:102490004FF40040FFF7E2FBBDE8084000214FF495
:1024A0000040FFF7DBBB01214FF48050FFF7C8FB72
:1024B000BDE8084000214FF48050FFF7C1BB012167
:1024C0004FF48040FFF7CAFBBDE8084000214FF4FD
:1024D0008040FFF7C3BB00BF003001400038004020
:1024E000003C00404A8830B40C888B882243CC885A
:1024F0001A430B8922434C898D891A43224303884E
:10250000CC892A43224303F4415313439BB20380F3
:10251000838B0A8A23F400631B041B0C838330BC67
:1025200002827047038829B923F040031B041B0C67
:10253000038070479BB243F040030380704700BFA5
:1025400081817047808980B2704700BF838829B934
:1025500023F004031B041B0C838070479BB243F0E1
:1025600004038380704700BF0389194214BF012010
:1025700000207047A1F17E02B2FA82F22DE9F84301
:102580002D4C002352098946054626461F462270D7
:1025900063704FF0010811E0002B3BD086F80380F8
:1025A0000121B5F87401FDF7F7FD63784FEA590989
:1025B0000133DBB2072B63703BD8327809F001039B
:1025C000A370002AE8D12A8882EA0301C9074FEAEA
:1025D000520244BF82F4044282F008022A80CBB146
:1025E000E3780133DBB2052BE370D9D10121B5F8D3
:1025F0007401FDF7D1FD40F2891395F86D21E77064
:10260000022A16BF02220122CA2385F86D21A5F8ED
:102610007231C5E740F2891395F86D21E770022AFF
:102620000EBF01220222CA2385F86D21A5F872315E
:10263000B6E7BDE8F88300BF90020020F8B5054674
:102640003F480F461646FFF747FB0122052172203F
:10265000FFF712FB4FF400513A48FEF783F80122CE
:1026600012217120FFF708FBFEF794FFB5F8040173
:10267000012385F8703108B1FDF7B0FD95F86F3191
:10268000002B53D1012385F86F314FF400412E48C0
:10269000FEF768F84FF6FF704FF080421388002471
:1026A00023F001031B041B0C1380B5F872310121C8
:1026B0009385948413889BB20B431380AB78288056
:1026C00085F86D1143B17E212846FFF753FF013491
:1026D000AB78E4B2A342F6D8344636B117F8011B02
:1026E0002846FFF747FF013CF8D12B88174CD94308
:1026F0006FEA13232846C9B22371FFF73BFF217904
:102700002846FFF737FF002428467E21FFF732FFD7
:10271000FEF7FEFE2146012285F870417120FFF789
:10272000ABFA6420FEF74EFF2046F8BD002385F883
:102730006F314FF400410448FEF716F8AAE700BFD6
:102740000040D84300100140000C014090020020DE
:102750002DE9F047044608460F4601F0BFFF4FF051
:10276000203904F10B0394F80E81C4F80B90A4F8FF
:102770000F9004F583710622251D0646184694F82D
:1027800015A101F0B3FFC4F8049004F20F11062262
:10279000A5F80490284601F0A9FFB8F1400F84BFC6
:1027A000A8F106085FFA88F804F58C7984F811809E
:1027B00084F80AA0484601F091FF8046421C494631
:1027C00004F1120001F04AFF5FFA88F000F10E08F0
:1027D0000023E1180A790133DBB2520043450A7144
:1027E000F7D300F10D0323441A7904EB080E42F0ED
:1027F00001021A71032223188EF804201030F022EF
:1028000039462844DA74324601F070FFB21C424463
:1028100029462046BDE8F047FFF710BFF8B5084647
:102820000D46164601F05AFFC0B2002842D00027DC
:102830003C46691E202200F1FF3E0CE02D2D08BF12
:102840002025774504F1010335551CD0DCB2013752
:10285000FBB2984214D911F8015F2C2DEED123461A
:10286000062B13D8C3F10704E4B21C44E4B25D1C88
:10287000F254EBB29C42FAD10137FBB29842EAD84B
:1028800000233355F8BDDBB2062BEBD9A3F10804C6
:10289000E4B2052C03D8C3F10E04E4B2E5E7A3F1DA
:1028A0000F04E4B2052C03D8C3F11504E4B2DCE74D
:1028B0001C46CCE70446E3E72DE9F047044640F226
:1028C0001B3640F289109A46214F19230125BC601E
:1028D00084F86C11A370A4F87461E270A4F872011A
:1028E000A4F8045184F86E519DF82090DDF82480FE
:1028F0009DF828700B9EFEF70BFE00212A4684F8F7
:1029000070117120FFF7B8F96420FEF75BFE4FF0FD
:10291000203504F5837251461046C4F80651A4F8D8
:102920000A5101F0D3FE04F20F1084F80E91C4F89E
:102930000F514146858001F0C9FE84F8157131467A
:1029400004F58C722046BDE8F047FFF767BF00BF73
:102950009002002010B590F86F310446D3B90123DE
:1029600080F86F314FF400410F48FDF7FBFE4FF048
:1029700080421388002123F001031B041B0C1380E9
:10298000B4F872319385918413889BB243F00103AC
:10299000138010BD002380F86F314FF400410248CE
:1029A000FDF7E2FEE3E700BF000C014081F00041CB
:1029B00002E000BF83F0004330B54FEA41044FEA24
:1029C000430594EA050F08BF90EA020F1FBF54EABF
:1029D000000C55EA020C7FEA645C7FEA655C00F05B
:1029E000E2804FEA5454D4EB5555B8BF6D420CDD2C
:1029F0002C4480EA020281EA030382EA000083EAAF
:102A0000010180EA020281EA0303362D88BF30BD4E
:102A100011F0004F4FEA01314FF4801C4CEA1131A4
:102A200002D0404261EB410113F0004F4FEA033303
:102A30004CEA133302D0524263EB430394EA050F8E
:102A400000F0A780A4F10104D5F1200E0DDB02FAFD
:102A50000EFC22FA05F2801841F1000103FA0EF291
:102A6000801843FA05F359410EE0A5F120050EF157
:102A7000200E012A03FA0EFC28BF4CF0020C43FA88
:102A800005F3C01851EBE37101F0004507D54FF095
:102A9000000EDCF1000C7EEB00006EEB0101B1F5E5
:102AA000801F1BD3B1F5001F0CD349085FEA30002B
:102AB0004FEA3C0C04F101044FEA445212F5800F36
:102AC00080F09A80BCF1004F08BF5FEA500C50F1D3
:102AD000000041EB045141EA050130BD5FEA4C0CB6
:102AE000404141EB010111F4801FA4F10104E9D13F
:102AF00091F0000F04BF01460020B1FA81F308BF36
:102B00002033A3F10B03B3F120020CDA0C3208DD01
:102B100002F1140CC2F10C0201FA0CF021FA02F1DC
:102B20000CE002F11402D8BFC2F1200C01FA02F14C
:102B300020FA0CFCDCBF41EA0C019040E41AA2BF71
:102B400001EB0451294330BD6FEA04041F3C1CDA39
:102B50000C340EDC04F11404C4F1200220FA04F059
:102B600001FA02F340EA030021FA04F345EA030103
:102B700030BDC4F10C04C4F1200220FA02F001FAC5
:102B800004F340EA0300294630BD21FA04F0294647
:102B900030BD94F0000F83F4801306BF81F48011E0
:102BA0000134013D4EE77FEA645C18BF7FEA655C53
:102BB00029D094EA050F08BF90EA020F05D054EA25
:102BC000000C04BF1946104630BD91EA030F1EBF2A
:102BD0000021002030BD5FEA545C05D1400049412E
:102BE00028BF41F0004130BD14F580043CBF01F521
:102BF000801130BD01F0004545F0FE4141F4700107
:102C00004FF0000030BD7FEA645C1ABF19461046E1
:102C10007FEA655C1CBF0B46024650EA013406BFE2
:102C200052EA033591EA030F41F4002130BD00BFA1
:102C300090F0000F04BF0021704730B54FF480645E
:102C400004F132044FF000054FF0000150E700BFDF
:102C500090F0000F04BF0021704730B54FF480643E
:102C600004F1320410F0004548BF40424FF000012B
:102C70003EE700BF42004FEAE2014FEA31014FEA6E
:102C800002701FBF12F07F4393F07F4F81F06051BD
:102C9000704792F0000F14BF93F07F4F704730B52C
:102CA0004FF4607401F0004521F0004120E700BFBF
:102CB00050EA010208BF704730B54FF000050AE046
:102CC00050EA010208BF704730B511F0004502D547
:102CD000404261EB41014FF4806404F132045FEA49
:102CE000915C3FF4DCAE4FF003025FEADC0C18BFEE
:102CF00003325FEADC0C18BF033202EBDC02C2F1E4
:102D0000200300FA03FC20FA02F001FA03FE40EA75
:102D10000E0021FA02F11444C1E600BF70B54FF075
:102D2000FF0C4CF4E06C1CEA11541DBF1CEA135557
:102D300094EA0C0F95EA0C0F00F0DEF82C4481EABF
:102D4000030621EA4C5123EA4C5350EA013518BFDF
:102D500052EA033541F4801143F4801338D0A0FBCC
:102D600002CE4FF00005E1FB02E506F00042E0FB79
:102D700003E54FF00006E1FB03569CF0000F18BF7F
:102D80004EF0010EA4F1FF04B6F5007F64F5407427
:102D900004D25FEA4E0E6D4146EB060642EAC621BA
:102DA00041EA55514FEAC52040EA5E504FEACE2E27
:102DB000B4F1FD0C88BFBCF5E06F1ED8BEF1004F2A
:102DC00008BF5FEA500E50F1000041EB045170BDA6
:102DD00006F0004646EA010140EA020081EA0301EA
:102DE000B4EB5C04C2BFD4EB0C0541EA045170BDE6
:102DF00041F480114FF0000E013C00F3AB8014F160
:102E0000360FDEBF002001F0004170BDC4F10004A8
:102E1000203C35DA0C341BDC04F11404C4F1200529
:102E200000FA05F320FA04F001FA05F240EA020084
:102E300001F0004221F0004110EBD37021FA04F6BA
:102E400042EB06015EEA430E08BF20EAD37070BD74
:102E5000C4F10C04C4F1200500FA04F320FA05F0D3
:102E600001FA04F240EA020001F0004110EBD370D5
:102E700041F100015EEA430E08BF20EAD37070BD45
:102E8000C4F1200500FA05F24EEA020E20FA04F31E
:102E900001FA05F243EA020321FA04F001F00041CD
:102EA00021FA04F220EA020000EBD3705EEA430E3E
:102EB00008BF20EAD37070BD94F0000F0FD101F06D
:102EC0000046400041EB010111F4801F08BF013CA6
:102ED000F7D041EA060195F0000F18BF704703F0E4
:102EE0000046520043EB030313F4801F08BF013D6B
:102EF000F7D043EA0603704794EA0C0F0CEA135527
:102F000018BF95EA0C0F0CD050EA410618BF52EAE0
:102F10004306D1D181EA030101F000414FF00000E6
:102F200070BD50EA410606BF1046194652EA4306F4
:102F300019D094EA0C0F02D150EA013613D195EA68
:102F40000C0F05D152EA03361CBF104619460AD1B0
:102F500081EA030101F0004141F0FE4141F47001BA
:102F60004FF0000070BD41F0FE4141F4780170BDAA
:102F700070B54FF0FF0C4CF4E06C1CEA11541DBF0F
:102F80001CEA135594EA0C0F95EA0C0F00F0A7F811
:102F9000A4EB050481EA030E52EA03354FEA01313E
:102FA00000F088804FEA03334FF0805545EA131351
:102FB00043EA12634FEA022245EA111545EA106519
:102FC0004FEA00260EF000419D4208BF964244F1B0
:102FD000FD0404F5407402D25B084FEA3202B61ACF
:102FE00065EB03055B084FEA32024FF480104FF4A3
:102FF000002CB6EB020E75EB030E22BFB61A754617
:1030000040EA0C005B084FEA3202B6EB020E75EBA9
:10301000030E22BFB61A754640EA5C005B084FEA11
:103020003202B6EB020E75EB030E22BFB61A7546DE
:1030300040EA9C005B084FEA3202B6EB020E75EBE9
:10304000030E22BFB61A754640EADC0055EA060EAA
:1030500018D04FEA051545EA16754FEA06164FEAED
:10306000C30343EA52734FEAC2025FEA1C1CC0D199
:1030700011F4801F0BD141EA00014FF000004FF026
:10308000004CB6E711F4801F04BF01430020B4F1E7
:10309000FD0C88BFBCF5E06F3FF6AFAEB5EB030C9F
:1030A00004BFB6EB020C5FEA500C50F1000041EB9C
:1030B000045170BD0EF0004E4EEA113114EB5C0469
:1030C000C2BFD4EB0C0541EA045170BD41F480113C
:1030D0004FF0000E013C90E645EA060E8DE60CEA44
:1030E000135594EA0C0F08BF95EA0C0F3FF43BAF61
:1030F00094EA0C0F0AD150EA01347FF434AF95EA18
:103100000C0F7FF425AF104619462CE795EA0C0FFB
:1031100006D152EA03353FF4FDAE1046194622E7C8
:1031200050EA410618BF52EA43067FF4C5AE50EAA2
:1031300041047FF40DAF52EA43057FF4EBAE12E792
:103140004FEA410212F5001215D211D56FF47873CF
:10315000B3EB625212D94FEAC12343F0004343EA72
:10316000505311F0004F23FA02F018BF404270474D
:103170004FF00000704750EA013005D111F00040D7
:1031800008BF6FF0004070474FF00000704700BF6D
:1031900080F0004002E000BF81F0004142001FBF0C
:1031A0005FEA410392EA030F7FEA226C7FEA236C15
:1031B0006AD04FEA1262D2EB1363C1BFD21841400A
:1031C00048404140B8BF5B42192B88BF704710F0A0
:1031D000004F40F4000020F07F4018BF404211F043
:1031E000004F41F4000121F07F4118BF494292EAAB
:1031F000030F3FD0A2F1010241FA03FC10EB0C00D7
:10320000C3F1200301FA03F100F0004302D5494263
:1032100060EB4000B0F5000F13D3B0F1807F06D310
:1032200040084FEA310102F10102FE2A51D2B1F108
:10323000004F40EBC25008BF20F0010040EA0300FD
:103240007047490040EB000010F4000FA2F10102AA
:10325000EDD1B0FA80FCACF1080CB2EB0C0200FA34
:103260000CF0AABF00EBC25052421843BCBFD04082
:103270001843704792F0000F81F4000106BF80F4FC
:1032800000000132013BB5E74FEA41037FEA226CBF
:1032900018BF7FEA236C21D092EA030F04D092F08A
:1032A000000F08BF0846704790EA010F1CBF0020BE
:1032B000704712F07F4F04D1400028BF40F000401B
:1032C000704712F100723CBF00F50000704700F03B
:1032D000004343F0FE4040F4000070477FEA226262
:1032E00016BF08467FEA23630146420206BF5FEA33
:1032F000412390EA010F40F4800070474FF0000333
:1033000004E000BF10F0004348BF40425FEA000CF9
:1033100008BF704743F0964301464FF000001CE0A1
:1033200050EA010208BF70474FF000030AE000BFF7
:1033300050EA010208BF704711F0004302D5404235
:1033400061EB41015FEA010C02BF844601460020A7
:1033500043F0B64308BFA3F18053A3F50003BCFAC2
:103360008CF2083AA3EBC25310DB01FA02FC63446F
:1033700000FA02FCC2F12002BCF1004F20FA02F276
:1033800043EB020008BF20F00100704702F1200269
:1033900001FA02FCC2F1200250EA4C0021FA02F2CA
:1033A00043EB020008BF20EADC7070474FF0FF0CCF
:1033B0001CEAD0521EBF1CEAD15392EA0C0F93EACA
:1033C0000C0F6FD01A4480EA010C400218BF5FEA6C
:1033D00041211ED04FF0006343EA501043EA5111DF
:1033E000A0FB01310CF00040B1F5000F3EBF4900D9
:1033F00041EAD3715B0040EA010062F17F02FD2ADD
:103400001DD8B3F1004F40EBC25008BF20F00100BF
:10341000704790F0000F0CF0004C08BF49024CEAD6
:10342000502040EA51207F3AC2BFD2F1FF0340EA68
:10343000C250704740F400004FF00003013A5DDCD9
:1034400012F1190FDCBF00F000407047C2F100021A
:10345000410021FA02F1C2F1200200FA02FC5FEA07
:10346000310040F1000053EA4C0308BF20EADC7051
:10347000704792F0000F00F0004C02BF400010F4C3
:10348000000F013AF9D040EA0C0093F0000F01F070
:10349000004C02BF490011F4000F013BF9D041EA92
:1034A0000C018FE70CEAD15392EA0C0F18BF93EA94
:1034B0000C0F0AD030F0004C18BF31F0004CD8D1BE
:1034C00080EA010000F00040704790F0000F17BF45
:1034D00090F0004F084691F0000F91F0004F14D08B
:1034E00092EA0C0F01D142020FD193EA0C0F03D1E3
:1034F0004B0218BF084608D180EA010000F00040E6
:1035000040F0FE4040F40000704740F0FE4040F4C0
:10351000400070474FF0FF0C1CEAD0521EBF1CEA5F
:10352000D15392EA0C0F93EA0C0F69D0A2EB03027D
:1035300080EA010C49024FEA402037D04FF0805317
:1035400043EA111143EA10130CF000408B4238BFDC
:103550005B0042F17D024FF4000C8B4224BF5B1AEA
:1035600040EA0C00B3EB510F24BFA3EB510340EA38
:103570005C00B3EB910F24BFA3EB910340EA9C00E6
:10358000B3EBD10F24BFA3EBD10340EADC001B0156
:1035900018BF5FEA1C1CE0D1FD2A3FF650AF8B42FA
:1035A00040EBC25008BF20F0010070470CF0004C07
:1035B0004CEA50207F32C2BFD2F1FF0340EAC25032
:1035C000704740F400004FF00003013A37E792F0F3
:1035D000000F00F0004C02BF400010F4000F013A51
:1035E000F9D040EA0C0093F0000F01F0004C02BF4C
:1035F000490011F4000F013BF9D041EA0C0195E7B5
:103600000CEAD15392EA0C0F08D142027FF47DAF4D
:1036100093EA0C0F7FF470AF084676E793EA0C0F3D
:1036200004D14B023FF44CAF08466EE730F0004C3B
:1036300018BF31F0004CCAD130F000427FF45CAFCB
:1036400031F000437FF43CAF5FE700BF4FF0FF3C39
:1036500006E000BF4FF0010C02E000BF4FF0010C8C
:103660004DF804CD4FEA40024FEA41037FEA226C55
:1036700018BF7FEA236C11D001B052EA530C18BF77
:1036800090EA010F58BFB2EB030088BFC81738BFDC
:103690006FEAE17018BF40F0010070477FEA226CCA
:1036A00002D15FEA402C05D17FEA236CE4D15FEAC6
:1036B000412CE1D05DF8040B704700BF84460846FA
:1036C0006146FFE70FB5FFF7C9FF002848BF10F1BB
:1036D000000F0FBD4DF808EDFFF7F4FF0CBF012000
:1036E00000205DF808FB00BF4DF808EDFFF7EAFF8A
:1036F00034BF012000205DF808FB00BF4DF808ED45
:10370000FFF7E0FF94BF012000205DF808FB00BF39
:103710004DF808EDFFF7D2FF94BF012000205DF8BF
:1037200008FB00BF4DF808EDFFF7C8FF34BF0120CC
:1037300000205DF808FB00BF42000ED2B2F1FE4F40
:103740000BD34FF09E03B3EB126209D44FEA002370
:1037500043F0004323FA02F070474FF00000704737
:1037600012F1610F01D1420202D14FF0FF307047D8
:103770004FF00000704700BF03685A004CBF43F091
:10378000004323F000431844704700BF61B32DE9A4
:10379000F84F01F1FF3A90460646D146002707EB65
:1037A000090404EBD4746410E50071190846FFF7AE
:1037B000E3FFA245834605F10800304409D0FFF736
:1037C000DBFFC34500F1FF3005D8404509D2671C37
:1037D000E5E7C34505D9A74202D004F1FF39DEE78A
:1037E00000210846BDE8F88F08467047012807D039
:1037F000022807D0044B00280CBF18460020704751
:103800000248704702487047013F0008053F000822
:10381000093F000830B5254B83B004468D1E7BB3AD
:1038200001A92846AFF3008020B301992A46FFF78B
:10383000ADFF0146F0B1FFF79FFF4B68A064012B7D
:1038400012D0002B01F1040021DBFFF795FF0023CC
:10385000E06423650368002B1DDBFFF78DFF002369
:103860002061184603B030BD0023236105231846AC
:1038700003B030BD002323610923184603B030BDD7
:103880000B490C4B0846591AC9100191CEE7012388
:10389000E0642365DEE7C3F30360FFF7A7FF0028BA
:1038A000206114BF00230923DBE700BF00000000F4
:1038B0000050000808510008036810B5DA070446F4
:1038C00006D49B0700F1480009D500F05BFC236893
:1038D000590709D51A070ED5DB0613D510BD00F020
:1038E00049FC23685907F5D404F1D00000F052FCDC
:1038F00023681A07F0D404F5A87000F053FC23687D
:10390000DB06EBD404F5E870BDE8104000F08EBC97
:1039100003680BB118447047184670470920704778
:10392000704700BF70B504460D4608E02A6C236955
:10393000626121462A4601209847082808D1296C4F
:103940002046FFF767FF06460028EFD0FEF770FC21
:103950000728FBD13046296CFFF7E2FF281D00F055
:10396000FDFB00BF2DE9F0470646ADF5727D03ADC6
:103970000C1D17460FCC0FC50FCC0FC50FCC0FC5B4
:1039800094E80F0002ACD6F80C80D6F8189085E8C1
:103990000F0000233046216C2360FFF73BFF0546F4
:1039A000002F14BF0A2709277DB1A36B47F0100130
:1039B0008DE810023246636401203346C04778BB6D
:1039C00028460DF5727DBDE8F087236C4FF4F07248
:1039D000736121467AA800F041FE33697AAA314624
:1039E00038469847889B82468DE8100239466364C2
:1039F000324633460120C04790B94FF4F0727AA99D
:103A0000204600F02BFEBAF1080F06D1216C30469B
:103A1000FFF700FF09270546C6E7BAF1070F04D0F4
:103A200009200DF5727DBDE8F0872846216CFFF76F
:103A300077FF03A800F092FB406C7047F0B5CB6BAA
:103A4000F9B00B640E1D01AD0F4604460FCE0FC535
:103A50000FCE0FC50FCE0FC596E80F004FF0FF3603
:103A600085E80F00009606E023696A4621469847DC
:103A70000828054608D110992046FFF7CBFE0028FC
:103A8000F2D0092079B0F0BD6846FFF715FF062D8A
:103A9000F7D139462046FFF745FF00BF30B4DD6B54
:103AA000C160826119461D64002230BC5AE700BF24
:103AB00070B54369C6680B6426B10122FFF752FF57
:103AC000FEF7B6FB03690A4604460D46014602208E
:103AD0009847072807D0082803D129462046FFF732
:103AE00021FFFEF7A5FB3046296CFFF719FF281DC3
:103AF00000F034FBC2682AB110B4CC6B00220C6415
:103B000010BC2FE79AE700BF704700BF836813B16E
:103B1000014601201847704700B5042907D8DFE89F
:103B200001F00309060909000BB90F2A05D9022083
:103B30005DF804FB01205DF804FB00EB8202526893
:103B40001846019B1A605DF804FB00BF10B584B0F5
:103B5000002303AC0A4600941946FFF7DDFF0398E3
:103B600004B010BD00B5042907D8DFE801F003094F
:103B7000060909000BB90F2A05D902205DF804FBDC
:103B800001205DF804FB019900EB820209681846E8
:103B900051605DF804FB00BF10B584B004AC44F87C
:103BA000042D00230A4600941946FFF7DBFF04B0FA
:103BB00010BD00BFF0B5D36BADF50F7D1364151DBF
:103BC00017AC07460E460FCD0FC40FCD0FC40FCD57
:103BD0000FC495E80F004FF0FF3584E80F001695ED
:103BE00011E016A86A46FFF7D7FF314616A8B84776
:103BF00080B9049B16AA6946082098470528044600
:103C000009D0092806D026996846FFF703FE0C2143
:103C10000028E6D0092416A8FFF74EFE20460DF531
:103C20000F7DF0BD2DE9F04FCC6C914622688BB032
:103C300004340D460792089400F0030B1E46002B37
:103C400064D11202032307928DF825608DF8243089
:103C50002B6DBBF1020F08BFAC6B13F0010343D116
:103C600000F00800C2B2039201932768002F3DD0F4
:103C7000022E47D02788B4F802800434AB6C28F0B9
:103C8000010A0F2148469A44FFF760FF824537D862
:103C900027F001039A4450452CBF002001204FEA31
:103CA000480808F0020807F0010748EA0708B8F1D9
:103CB000010F41D038D3B8F1020F1DD1236823F092
:103CC00000420292BBF1000F79D130B10399002973
:103CD00000F08180002A00F0A880002B79DB029B95
:103CE000013304EB8304C0E700230193022E40DD7F
:103CF000FFF714FE002842D009200BB0BDE8F08F7A
:103D00000020CCE7D4F804800834B7E7022B9FDC0E
:103D1000130CD9B212048DF82530022304EB810470
:103D200007928DF8243093E7BBF1000F02D00028F2
:103D300040F0B080043498E7BBF1000F26D1B0B159
:103D400094E80C00991C4FEAD272D5D005F15801C5
:103D50000133069100F09480201DFFF7D9FD06ABDA
:103D600001462846AFF30080002840F0B8800834B0
:103D70007BE707A9484600F0F3FA0028BCD1019B75
:103D8000002B5CD108200BB0BDE8F08F0D21484618
:103D90002F6AFFF7DBFE8742E9D1AB6A9C42E6D18E
:103DA0002046FFF7E9FC0F2102464846FFF7F4FEE4
:103DB00048462A460021FFF7EFFE07209DE70D2128
:103DC00048462F6AFFF7C2FE874248D02368002B7F
:103DD00085DA043483E7029B3BB305F15803271DC2
:103DE000CDF810B0DDF80C80A346DDF808A01C4625
:103DF000059602E0B245B04616D038460694FFF765
:103E000087FD06AB014600222846AFF3008008F18B
:103E1000010604370028EDD0029B5C464345DDF8DF
:103E200010B0059ED2D100E05C4648460D21FFF758
:103E30008DFE069B2862AC626B6206205DE70F2157
:103E40004846FFF783FE0E2102464846FFF7A4FED0
:103E500048462A4A0F21FFF79FFE07204DE7AB6A2D
:103E60009C42B3D1042202990027A318A962EF62F1
:103E70002A636B632368BB421FDB012301932EE798
:103E800048460D21FFF762FE2862069B6B62AC621A
:103E9000062032E72046FFF76FFC04340646AC6389
:103EA0002846AFF3008000283FF426AF484632464C
:103EB0000F21FFF771FE07201FE70846013004EBD2
:103EC0008000FFF759FC0F2102464846FFF764FEC9
:103ED00048462A463946FFF75FFE07200DE70746AA
:103EE0000D214846FFF732FE022F2862CDD12B4626
:103EF000069A43F82C2F6B62C9E700BF0000000050
:103F000000238FE601238DE602238BE6F0B50446FD
:103F1000C5B004290DD8DFE801F057030C310F00BC
:103F2000012B4FEA124695B266D17219102A40F25F
:103F30009F80022045B0F0BD002BFAD1102AF8D89E
:103F40002368D80600F1C98022AE3046019200F005
:103F500077F9A06B019A0023012505FA03F11142BC
:103F600003D00168043046F823100133042BF4D148
:103F7000A063304600F05AF90020DBE7032BD8D1CC
:103F8000150C97B2EB19102BD3D823681E0700F13C
:103F9000B88022AE30467F0000F026F906EBC5025D
:103FA0007B1EA56B57B12946043A51F8040B013B1F
:103FB00042F8040F581CF8D105EB87053046A5637D
:103FC00000F0F0F80020B5E7002BB2D1A56B97B256
:103FD000201D012606FA03F1394203F1010302D044
:103FE000296804350160102B00F10400F2D112F4AD
:103FF00000503BD1A5639DE7052B9AD17719202F5F
:1040000097D80F2E65D92F46002D48D12A46002774
:10401000002AA06B71DD00EBC202014644A800EB50
:10402000C6008C3851F8045B914240F8045FF9D126
:10403000084697B13246102E44A938BF102201EB32
:10404000C202A2F5C4727900043A00EB810150F873
:10405000045B814242F8045FF9D1012B47D00F2E57
:10406000A16332D917B102A800F094F8002061E7EB
:104070000F2E3FF65EAF00272268D1070DD522F044
:104080000101052B21600193204652D022F003024A
:1040900040F8482B00F072F8019B002F51D02268A5
:1040A000510736D4012B3ED00F2E06D822A80193FB
:1040B00000F06CF8019B002FA8D002A8019300F03B
:1040C0006DF8019BC6F11002A2E722A800F05AF891
:1040D000C8E7102FCFD9103FCEE723F0100323609D
:1040E00004F5E870019200F0ABF8019A2CE7043176
:1040F000A16322A800F03EF8B8E7002F9AD101464C
:10410000ABE723F00803236004F5A87000F06CF817
:104110003FE7204622F0040240F8D02B019300F044
:104120003DF8019BBEE722A8019300F027F8019B10
:10413000C8E741F0020140F8481B00F027F8019B56
:10414000ABE7012B03D00F2E3FF660AFAEE722A8FE
:10415000019300F013F8019B58E700BF00F1340110
:1041600091E838009C46A6464CF8045D90E8FF0FA5
:10417000E54600BD90EC210B704700BF80EC210BA1
:10418000704700BF90EC200B704700BF80EC200B05
:10419000704700BFD0EC200B704700BFC0EC200B75
:1041A000704700BFF0EC0201F0EC0211F0EC0221CC
:1041B000F0EC0231F0EC0241F0EC0251F0EC026163
:1041C000F0EC0271F0EC0281F0EC0291F0EC02A153
:1041D000F0EC02B1F0EC02C1F0EC02D1F0EC02E143
:1041E000F0EC02F1704700BFE0EC0201E0EC0211DC
:1041F000E0EC0221E0EC0231E0EC0241E0EC0251A3
:10420000E0EC0261E0EC0271E0EC0281E0EC029192
:10421000E0EC02A1E0EC02B1E0EC02C1E0EC02D182
:10422000E0EC02E1E0EC02F1704700BFB0FC01817C
:10423000B0FC0191B0FC01A1B0FC01B1704700BF1E
:10424000A0FC0181A0FC0191A0FC01A1A0FC01B196
:10425000704700BFEC4600B52DE900502DE9FF1F67
:104260004FF000032DE90C0001A9FFF7E7FBDDF893
:1042700040E012B0704700BFEC4600B52DE9005099
:104280002DE9FF1F4FF000032DE90C0001A9FFF7F6
:104290000FFCDDF840E012B0704700BFEC4600B5FF
:1042A0002DE900502DE9FF1F4FF000032DE90C0010
:1042B00001A9FFF71FFCDDF840E012B0704700BF16
:1042C000EC4600B52DE900502DE9FF1F4FF000032B
:1042D0002DE90C0001ABFFF7E1FBDDF840E012B087
:1042E000704700BFEC4600B52DE900502DE9FF1FD7
:1042F0004FF000032DE90C0001AAFFF75BFCDDF88D
:1043000040E012B0704700BF037A1BB9437A43B94B
:10431000B02070475A1E036802721A020260180E1B
:1043200070474268013B10B4437213680321141DA7
:1043300001721A024460026010BC180E704700BF80
:1043400000B585B003AA0023009219460C22FFF79E
:10435000E3FB039805B05DF804FB00BFF0E700BF86
:104360002DE9F04306460D4685B04FF0000828467B
:10437000FFF7CAFFB028044600F0B48020F07F03A6
:1043800013F0FF0320D000F0F003802B7AD0902BA5
:1043900035D0A02B48D0B02B5CD0C02B00F089804A
:1043A00000F0F803D02B0BD100F00702013242F4E9
:1043B0000022052301213046FFF7A8FD0028D6D0B2
:1043C000092005B0BDE8F0830DF10C0919468700FE
:1043D000CDF800900D223046FFF79EFBFFB2039B05
:1043E000043760064CBFDF1BFF180023CDF8009098
:1043F00019460D2230460397FFF7B4FBB7E700F0EC
:104400000D030D2BDCD003AF002300F00F02194683
:1044100000973046FFF780FB0023009719460D22D6
:104420003046FFF79FFBA2E7C2434FF47F6302F0E1
:10443000070243FA02F2010702EA03024FF0000307
:1044400048BF42F4804219463046FFF75FFD00281E
:10445000B6D18CE7B1284AD0B22853D0B32800F0A7
:10446000818000F0FC03B42BAAD000F007020132D7
:10447000012342F4002219463046FFF747FD002889
:104480009ED174E72846FFF73FFF24022043B0F592
:10449000004F95D004010023A2B219463046FFF721
:1044A00035FD00288CD114F4004F18BF4FF00108DF
:1044B0005DE7C62862D0C7286CD000F0F803C02B97
:1044C0007BD0C82800F09180C9287FF479AF2846B6
:1044D000FFF71AFF020300F00F0002F47022013010
:1044E000024366E7B8F1000F6ED0002069E7284666
:1044F000FFF70AFF024600283FF462AF10F0F00316
:10450000B9D05DE700230DF10C090D221946CDF855
:1045100000903046FFF700FB2846FFF7F5FE020645
:104520004FF002040CD5039B00F07F00A040034431
:1045300028460393FFF7E8FE030604F10704F2D4CC
:10454000039B00F07F0000FA04F203F501740023DE
:104550001444CDF8009019460D2230460394FFF71D
:1045600001FB04E72846FFF7CFFE010300F00F0030
:1045700001F47021421C01230A437CE72846FFF71F
:10458000C3FE010300F00F0001F47021421C03235D
:104590000A4370E72846FFF7B7FE024600283FF4BB
:1045A0000FAF10F0F0037FF40BAF04213046FFF79C
:1045B000ADFC00287FF404AFD9E600F00F02013211
:1045C000032342F4202256E703AC43460E22414621
:1045D00000943046FFF7A0FA0094304643460F227D
:1045E0004146FFF7BFFA4046EBE62846FFF78CFE50
:1045F00000F0F00200F00F031032013343EA023200
:10460000D7E600BF10B5C36C84B003205A688DF89C
:104610000C00DC7912020833084601A901928DF8DA
:104620000D400293FFF79CFE04B010BD08B5FFF7E4
:1046300095FE806C08BD00BF08B5FFF78FFEC36C08
:10464000D87903EB8000083008BD00BF08B5FDF73E
:10465000EFFD00BF08B5FFF7F9FF00BF10B5431E1F
:104660000A44914204D011F8014B03F8014FF8E7D6
:1046700010BD03460244934202D003F8011BFAE73F
:10468000704700000EB400B54FF402719CB0ADF855
:1046900014106FF00041049107914FF6FF711DABAC
:1046A00002900690084853F8042BADF816100068E5
:1046B00002A9019300F086F8029B00221A701CB038
:1046C0005DF804EB03B0704788000020034611F842
:1046D000012B03F8012B002AF9D17047034613F888
:1046E000012B002AFBD1181A01387047034610B578
:1046F00042B111F8014B013A03F8014B002CF7D1FC
:104700001A4400E010BD934202D003F8014BFAE7CF
:1047100010BD2DE9F0478E6882469E420C469146B8
:1047200098463ED88A8912F4906F3AD02568096974
:1047300002236F1A656905EB450595FBF3F57B1CB4
:1047400043449D4238BF1D4653050FD5294600F00E
:104750003FFB064698B13A462169FFF77FFFA389E0
:1047600023F4906343F08003A38113E02A4600F012
:104770008DFB064670B92169504600F0DDFA0C2326
:10478000CAF80030A3894FF0FF3043F04003A38103
:10479000BDE8F08726613E44266046466561ED1B14
:1047A000A560464528BF464649463246206800F087
:1047B000A7FAA36800209B1BA36023681E44266001
:1047C000BDE8F0872DE9F04F9DB003938B898046BB
:1047D0001C060D4616460DD50B695BB9402100F04D
:1047E000F7FA2860286118B90C23C8F80030CDE02A
:1047F00040236B610023099320238DF82930DFF8D3
:104800009CB130238DF82A3037463C4614F8013BE2
:104810001BB9B7EB060910D003E0252BF9D02746CA
:10482000F3E74B46324629464046FFF772FF013018
:1048300000F0A780099B4B4409933B78002B00F0C4
:10484000A08000234FF0FF32049307930592069354
:104850008DF853301A930126052221784E4800F036
:1048600041FA671C049B38B14B4A3C46801A06FA51
:1048700000F018430490EFE7D90644BF20228DF8DA
:1048800053201A0744BF2B228DF8532022782A2A5E
:1048900003D0079A00210A200BE0039A111D126829
:1048A0000391002A10DA524243F00200079204906A
:1048B0000BE027463B780134303B092B03D800FB43
:1048C00002320121F5E701B107923B782E2B1ED170
:1048D0007B782A2B0AD1039B02371A1D1B6803928F
:1048E000002BB8BF4FF0FF33059310E000231946AB
:1048F0000593781C0A2407463A780130303A092A91
:1049000003D804FB01210123F5E703B1059103223C
:104910003978224800F0E6F940B14023CBEB0000A3
:1049200003FA00F0049B01371843049039780622FB
:104930001B487E1C8DF8281000F0D4F988B1194B63
:1049400033B9039B073323F007030833039314E0C1
:1049500003AB00932A46144B04A94046AFF30080F2
:1049600007E003AB00932A460F4B04A9404600F032
:1049700093F8B0F1FF3F824603D0099B534409935B
:1049800042E7AB895B0601D4099801E04FF0FF30A4
:104990001DB0BDE8F08F00BFB44F0008BA4F00084B
:1049A000BE4F000800000000134700082DE9F04743
:1049B00091461F460A698B6806469342B8BF134664
:1049C000C9F8003091F843200C46DDF8208012B180
:1049D0000133C9F800302368990642BFD9F8003086
:1049E0000233C9F80030256815F0060510D104F12E
:1049F000190A07E00123524639463046C0470130C4
:104A00001AD00135E368D9F800209B1A9D42F1DBEA
:104A100094F843302268003318BF012392060FD563
:104A2000E118302081F843005A1C94F845102244C4
:104A3000023382F8431003E04FF0FF30BDE8F08707
:104A400004F1430239463046C0470130F4D02268B1
:104A5000D9F80050E36802F00602042A08BF5D1B83
:104A60002269A3680CBF25EAE57500259342C4BFFF
:104A70009B1AED184FF000091A344D4509D0012357
:104A8000224639463046C0470130D5D009F10109E8
:104A9000F3E70020BDE8F0872DE9F04317460A7ED2
:104AA00085B06E2A984606460C460C9B01F1430ED3
:104AB00000F0AE8011D8632A22D009D8002A00F075
:104AC000BB80582A40F0CA8081F84520834955E0D0
:104AD000642A1ED0692A1CD0C0E0732A00F0B0807E
:104AE00009D86F2A2ED0702A40F0B8800A6842F0A8
:104AF00020020A603EE0752A24D0782A3AD0ADE040
:104B00001A6801F14205111D1960136884F84230DA
:104B1000A8E021681A6811F0800F02D0111D1960F9
:104B200008E011F0400F02F10401196002D0B2F95F
:104B3000003000E01368002B3CDA2D225B4284F841
:104B4000432037E021681A6811F0800F02D0111D50
:104B5000196007E011F0400F02F10401196001D063
:104B6000138800E01368227E5C496F2A14BF0A2272
:104B700008221BE078225A4984F8452022681868E8
:104B800012F0800F00F104051D6003D1550601D518
:104B9000038800E00368D00744BF42F0200222608F
:104BA0001BB9226822F0200222601022002084F823
:104BB000430001E049490A226568002DA56008DB31
:104BC000206820F0040020602BB9002D7DD17546AF
:104BD0000CE0002B79D07546B3FBF2F002FB1033EA
:104BE000CB5C05F8013D03460028F5D1082A0BD11E
:104BF0002368DA0708D5236962689A42DEBF30234A
:104C000005F8013C05F1FF35C5EB0E0323612EE0ED
:104C100008681A6810F0800F496903D0101D1860E9
:104C2000136808E010F0400F02F1040018601368E8
:104C300001D0198000E0196000232361754616E059
:104C40001A68111D1960156800216268284600F075
:104C500049F808B1401B6060636804E004F1420554
:104C600084F8422001232361002384F84330CDF8E7
:104C700000803B4603AA21463046FFF797FE0130ED
:104C800002D14FF0FF3026E023692A4639463046EC
:104C9000C0470130F5D023689B0710D5002504F1EB
:104CA000190907E001234A4639463046C04701301A
:104CB000E7D00135E368039A9B1A9D42F2DBE06876
:104CC000039B9842B8BF184605E00B7804F14205F3
:104CD00084F842308AE705B0BDE8F083C54F00088C
:104CE000D64F000810B5C9B202449042034605D021
:104CF0001C7801308C42F8D1184610BD002010BD40
:104D0000884210B501EB020301D8421E0BE0984225
:104D1000FBD28118D21AD34204D013F8014D01F806
:104D2000014DF8E710BD994204D011F8014B02F88B
:104D3000014FF8E710BD000038B50546002944D002
:104D400051F8043C0C1F002BB8BFE41800F0D4F855
:104D50001E4A1368114613B96360146030E0A34221
:104D60000DD92268A018834201BF18685B68121829
:104D7000226063600C6023E0A24203D813465A68A5
:104D8000002AF9D118681918A1420BD121680144F1
:104D900058188242196013D1106852680144196092
:104DA0005A600DE002D90C232B6009E021686018DD
:104DB000824201BF106852680918216062605C601D
:104DC0002846BDE8384000F098B838BDA40200205D
:104DD00070B5CD1C25F0030508350C2D38BF0C250A
:104DE000002D064601DBA94202D90C23336046E0C0
:104DF00000F082F8234B1C681A462146A1B10B68CB
:104E00005B1B0ED40B2B03D90B60CC18CD501EE0CE
:104E10008C420BBF63684B681360636018BF0C461D
:104E200015E00C464968E9E7174C23681BB9304682
:104E300000F052F820602946304600F04DF8431C3F
:104E400018D0C41C24F00304A0420DD125603046C4
:104E500000F053F804F10B00231D20F00700C31AE3
:104E60000ED05A42E25070BD211A304600F034F89C
:104E70000130EBD10C233360304600F03EF80020C7
:104E800070BD00BFA4020020A0020020F8B50746B4
:104E900015460E4621B91146BDE8F840FFF798BF08
:104EA0001AB9FFF749FF2846F8BD00F027F88542F8
:104EB0000ED929463846FFF78BFF044650B13146DC
:104EC0002A46FFF7CBFB31463846FFF735FF01E0B6
:104ED0003046F8BD2046F8BD38B5064C00230546DF
:104EE00008462360FDF796F9431C02D1236803B1FD
:104EF0002B6038BD380300207047704751F8040C10
:104F00000028BEBF091851F8043CC0180438704787
:104F10005351394D4444000052464F4E4C59000005
:104F200041505A51415000003E464958204F4B00D5
:104F30003E4E4F204649580057494445312D3100D7
:104F400057494445312D312C57494445322D3100C4
:104F50002F413D2530366C64000000002530336C55
:104F6000642F2530336C64002125303264253032C3
:104F7000642E253032752563257325303364253042
:104F800032752E25303275256325732573257325DB
:104F9000732573002074657374756A65207472617B
:104FA0006B657261207A2052533431005B0000003F
:104FB0002F000000232D302B2000686C4C0065660C
:104FC000674546470030313233343536373839415A
:104FD0004243444546003031323334353637383970
:074FE0006162636465660075
:104FE80008B10181B0B000840000000008B101815F
:084FF800B0B0008400000000CD
:1050000048C6FF7FB0A8038074C6FF7F0100000080
:1050100084C6FF7FB0AA0B801CC7FF7F03AF34801C
:10502000FCC9FF7F010000004CD5FF7FAD08B180B7
:105030000CD6FF7FAB08B18018D7FF7F01000000BE
:1050400078D8FF7FB0B0AE800CD9FF7FB0B0A88019
:105050005CD9FF7F01000000BCE7FF7FB0A90280A0
:1050600058E8FF7FB0B0A880A8E8FF7F01000000EB
:10507000B4E8FF7FB0B0AA80ECE8FF7FAE71B280E9
:10508000B8E9FF7F01000000B4E9FF7FAB3F388043
:105090000CEAFF7F0100000018EAFF7FB0B0AA8091
:1050A00054EAFF7F010000000CEBFF7FAB0EB280E3
:1050B00074EBFF7FB0AF0A8048EEFF7F0100000075
:1050C0004CEEFF7FAB3F048094F0FF7F01000000B7
:1050D00070F2FF7F0084048084F2FF7F01000000F3
:1050E00080F2FF7FB0AD04801CF5FF7FB0A8038085
:1050F0003CF5FF7FF4FEFF7F40F5FF7FF8FEFF7F6A
:085100004CF5FF7F01000000E7
:105108003C0000003C0000000A000000AB12000058
:105118004E00000000000000010203040102030425
:105128000607080902040608000000000000000045
:105138000000000000000000000000000000000067
:105148000000000000000000000000000000000057
:105158000000000000000000000000000000000047
:105168000000000000000000000000000000000037
:105178000000000000000000000000000000000027
:0C518800000000000000000028000020D3
:0400000508000000EF
:00000001FF
